:40000000020BA3008F828E83E0540100000070F82278FFE4F6D8FD020C01020362E86480F8E933E83360110460F0ED33EC337009E8FCE9FDEAFEEBFF220460DED3EB9FEAD4
:400040009EE99DE8C2E78CF0C2F795F0400CE8CCF8E9CDF9EACEFAEBCFFB12032D85D0F05804700320D5B3E80470075002B2D502036C92D5EC0460F7E4CCC0E0C398F860A7
:400080003B94186008400DD0E0FB020344E4FBFAC9FC8028E830E406E4C9FBE4CAFCE830E305E4C9CACBFCE854076010F8C3E913F9EA13FAEB13FBEC13FCD8F130F52FC3AA
:4000C000E49CFCEF9BFFEE9AFEED99FDD0E0FBEF4E4D4C701222DB03020369EC2CFCEF33FFEE33FEED33FDED30E7EB020344EF2BFFEE3AFEED39FDD0E0FB50130BBB00039F
:4001000002036CED13FDEE13FEEF13FFEC13FC020344EC4D6011E8497017ED33EC3304600DE4FCFFFEFD22E933E8330470F802036212032D58046009E4CC248150062850CB
:400140000902036C284003020369C0E0EB4A7044B98006D0E0FB020358EF4E701CBD8008EBFFEAFEE9FD80EBE98DF0A4FEE5F00201FBE9CDF9EAFEEBFFEF89F0A4FCE5F0F2
:40018000CE89F0A42EFFE435F0CD89F0A42DFEE435F08067EF4E7005BD80D780C3EF8BF0A4ACF0EE8BF0A42CFCE435F0F8EF8AF0A42CE5F038FCE433CB8DF0A42CFCE5F0EE
:4001C0003BF8EE8AF0A42CFCE5F038F8E433CF89F0A42CFCE5F038CF3400CE89F0A42FFFE5F03EFEE433C98DF0A42EFEE5F039CD8AF0A42FFFE5F03EFEE43DFD33D0E0FBCD
:4002000050070BBB000F02036CEC2CFCEF33FFEE33FEED33FD02034402036CEC5D046005E85904700302036212032D580460F6EC4860F2EC7004FDFEFF22C860DB2481C8BF
:400240005009C398600250060203699850CAF582E9294B4A7005AB8202035875F0007C1A7880C3EF9BEE9AED99400DC3EF9BFFEE9AFEED99FDE842F0DC23ACF0D0E0FFD0B1
:40028000E0FED0E0FDAB8220E7101BEB60BAEC2CFCEF33FFEE33FEED33FD020344E803F830E705C0F075F000EF2FFFEE33FEED33FD40B830E7C280AA75F020800E75F010A5
:4002C000800575F0087D007E007F003392D530D503120575EC334010EF33FFEE33FEED33FDEC33FCD5F0ED22E5F0247EA2D513CC92E7CDCEFF22EDD2E7CD33EC3392D52457
:40030000814006E4FFFEFDFC22FCE4CFCECDCC24E0501174FF80EDC3CC13CCCD13CDCE13CECF13CF0470F030D5DE020575E9D2E7C933E833F892D5EDD2E7CD33EC33FC5038
:4003400002B2D522EC30E7100FBF000C0EBE00080DBD00040BEB6014A2D5EB13FCED92E7FD2274FFFCFDFEFF22E480F8A2D574FF13FC7D80E480EFC0E0EFFBEEFAEDF9EC6F
:40038000F8120112D0E0F5F0EFFBEEFAEDF9ECF81205C6A3A3A3A3E8C0E0E9C0E0EAC0E0EBC0E0C0F01201121205E2A3A3A3A3120021D0F0D0E0FBD0E0FAD0E0F9D0E0F86D
:4003C000D5F0D422BB010689828A83E0225002E722BBFE02E32289828A83E49322BB010689828A83F0225002F722BBFE01F322C5F0F8A3E028F0C5F0F8E5821582700215FA
:4004000083E038F022BB010A89828A83F0E5F0A3F0225006F709A7F01922BBFE06F3E5F009F31922EF2BFFEE3AFEED39FDEC38FC22E88FF0A4CC8BF0A42CFCE98EF0A42CD8
:40044000FC8AF0EDA42CFCEA8EF0A4CDA8F08BF0A42DCC3825F0FDE98FF0A42CCD35F0FCEB8EF0A4FEA9F0EB8FF0A4CFC5F02ECD39FEE43CFCEAA42DCE35F0FDE43CFC22E7
:4004800075F008758200EF2FFFEE33FECD33CDCC33CCC58233C5829BED9AEC99E58298400CF582EE9BFEED9AFDEC99FC0FD5F0D6E4CEFBE4CDFAE4CCF9A88222B800C1B925
:4004C0000059BA002DEC8BF084CFCECDFCE5F0CBF97818EF2FFFEE33FEED33FDEC33FCEB33FB10D703994004EB99FB0FD8E5E4F9FA227818EF2FFFEE33FEED33FDEC33FCA6
:40050000C933C910D7059BE99A4007EC9BFCE99AF90FD8E0E4C9FAE4CCFB2275F010EF2FFFEE33FEED33FDCC33CCC833C810D7079BEC9AE899400AED9BFDEC9AFCE899F8B5
:400540000FD5F0DAE4CDFBE4CCFAE4C8F922EF5BFFEE5AFEED59FDEC58FC22EF4BFFEE4AFEED49FDEC48FC22CFF4CFCEF4CECDF4CDCCF4CC22C3E49FFFE49EFEE49DFDE403
:400580009CFC22EB9FF5F0EA9E42F0E99D42F0E89C45F022E8600FECC313FCED13FDEE13FEEF13FFD8F122E8600FEFC333FFEE33FEED33FDEC33FCD8F122E0FCA3E0FDA34C
:4005C000E0FEA3E0FF22E493FC740193FD740293FE740393FF22E0F8A3E0F9A3E0FAA3E0FB22E493F8740193F9740293FA740393FB22ECF0A3EDF0A3EEF0A3EFF022A4257A
:4006000082F582E5F03583F58322E0FBA3E0FAA3E0F922EBF0A3EAF0A3E9F022E493FB740193FA740293F922D083D082F8E4937012740193700DA3A393F8740193F5828823
:4006400083E4737402936860EFA3A3A380DFE50C2582F582E50B3583F583B50B0485820C2210AF0685820CF50B2285820CF50BD2AF22EC8EF0A4CCC5F0CCCDF8EFA4CEC57A
:40068000F02DFDE43CFCE8A42EC8C5F03DFDE43CFCEFA4FFE5F028FEE43DFDE43CFC22E709F608DFFA8046E709F208DFFA803E88828C83E709F0A3DFFA8032E309F608DF90
:4006C000FA806EE309F208DFFA806688828C83E309F0A3DFFA805A89828A83E0A3F608DFFA804E89828A83E0A3F208DFFA804280D280FA80C680D4805580F280298010804C
:40070000A680EA809A80A880DA80E280CA802988848C8589828A83E493A30586F0A30586DFF5DEF3800B89828A83E493A3F608DFF9ECFAA9F0EDFB2288848C8589828A83CA
:40074000E0A30586F0A30586DFF6DEF480E389828A83E493A3F208DFF980D688F0EF60010E4E60CD88F0ED2402B4040050C3F582EB2402B4040050B923234582239006EF44
:40078000737B007A4679E812187DEF4405FD7B007A4679E8121889750A00E50AC39408503AAF0AEF75F005A424B6F582E43419F583AF82AE838E088F09AE08AF098F828E5B
:4007C0008312061CAE08AF098F828E83740393FC740493FD121737050A80BF7B087A00790012169E7B007A7679007D047C001217377B007A7679087D047C001217377B01B4
:400800007A50790312187DEF4402FD7B017A5079031218897B017A50791312187DEF4402FD7B017A5079131218899043A0E0FFEF4440FF9043A0EFF09043C2E0FFEF441027
:40084000FF9043C2EFF07B087A007964C003C002C0017B007A5179029019C6120613D001D002D0037F087E0012163B7B087A00796CC003C002C0017B007A5179109019C646
:40088000120613D001D002D0037F0A7E0012163B7B087A007978C003C002C0017B007A5179209019C6120613D001D002D0037F0A7E0012163B904322E0FFEF4408FF9043BF
:4008C00022EFF09046ECE0FFEFC394055006904689743AF090480074F1F0120A9F90480074B1F01215357B007A4379A0C003C002C0017B007A4379B09019C6120613D00124
:40090000D002D0037F0E7E0012163B9043B0E0FFEF54FDFFEFF0223A70FA83BCAAE9E43E81E0F8BF9DE9E63F80000039283C1ABB9969663DA335E3BF255DE73FC90FDB41FA
:400940008DDBCCC44936EE45C9913FC5B0F83D3F800000C317F534452FFA73C60AFDDD120A2004A2E192001420E01590091774041203778030120A2030E102B20020E0EB6F
:40098000A883A9829019D01205F28982888390092B74041203778582F09019D01205D685F082120112ED4C6007300004EC6480FC22120A20C0E0A883A9829019D01205F292
:4009C0008982888390094F74031203778582F09019D01205D685F0821201129019D0E0CCF0A3E0CDF0A3E0CEF0A3E0CFF090093F7403120377D0828582F09019D01205D61B
:400A000085F082E58230E00712021BB2008096EFCBFFEECAFEEDC9FDECC8FC12021B8085ED33EC547FCC33920024605007D0E0D0E00203627B837AF97922783E120112ED5E
:400A4000F933ECF83324815011EFFBEEFA1202F61202B8ECB2E7FC120021ED33EC33602F2403F8C313FCED92E7FDE82481E4501FECF8EDF9EEFAEFFB1202F6EF04C2E0FC98
:400A8000F5821202C2ECB2E7FC120021E58203FAED33EC3360071413FCED92E7FDEA227B007A4079807D777C0012186E9040827418F09043007402F09040007408F090424E
:400AC000007403F07B0C7A01790812187D9046A1EFF07B007A4279227D087C0012186E7B007A4279207D517C1212186E9019C5E4F07F197E007D007C009019C11205F2908C
:400B000019C11205BAD3EF9400EE9400404E9019C5E0FFEF64036044904225E0FFEF5401FF7E009019C5E0FEEE25E0FEEE4FFFEF5403FF9019C5EFF07FE07E017D007C00E4
:400B40001216009019C11205BA7BFF7AFF79FF78FF1204249019C11205F280A39019C11205BAEF4E70057F0312184C7B007A4079047D007C0112186E9040047407F0904028
:400B800006E4F09040087448F0904004E4F09040017402F09043A2E0FFEF4401FF9043A2EFF02275930078007583467582E8E04401F0009046ECE0F99046FAE0FAB9032226
:400BC0005420B40012B8001AEA901FFFF07401901FFEF09046F6F0901FFEE06005901FFFE0FA90480074C0F075812090000078007920E4F0A3D8FCD9FAEA9019DFF00200E4
:400C000011750B1F750CFD120781121454020C4B020C90E493A3F8E493A34003F68001F208DFF48029E493A3F85407240CC8C333C4540F4420C8834004F456800146F6DFC4
:400C4000E4800B01020408102040809013AEE47E019360BCA3FF543F30E509541FFEE493A360010ECF54C025E060A840B8E493A3FAE493A3F8E493A3C8C582C8CAC583CA7B
:400C8000F0A3C8C582C8CAC583CADFE9DEE780BE7B017A007908900000E0FCA3E0FD120E187B017A0179FC900002E0FCA3E0FD120E187B017A03798C900004E0FCA3E0FD08
:400CC000120E1812177FEF6012121796EF600C1217ADEF60061217C4EF70E812177FEF70137B017A007908900000E0FCA3E0FD120ECC8049121796EF70137B017A0179FC6B
:400D0000900002E0FCA3E0FD120ECC80301217ADEF70137B017A03798C900004E0FCA3E0FD120ECC80171217C4EF70117B017A0479D9900006E0FCA3E0FD120ECC1215EBD7
:400D400012177FEF60FA121796EF60F41217ADEF60EE1217C4EF60E8121768020CC3229019CEEFF09019CFEDF09019D0EBF09019D47401F09019CEE0FFEFC39418400302EB
:400D80000E129019D0E0FFEF5401FF7E00EF75F080A4FFAEF09019CFE0FEEE547FFEEE4FFF9019CEE0FE75F008EE9076001205FEEFF09019D2E0FFEF540FFF7E00EF75F06D
:400DC00010A4FFAEF09019D1E0FEEE540FFEEE4FFF9019CEE0FE75F008EE9076011205FEEFF09019D3E0FFEF540FFF9019CEE0FE75F008EE9076021205FEEFF09019CEE065
:400E0000FF75F008EF9076031205FEE4F09019D4E4F09019D4E0FF229019C11206139019C4ECF0A3EDF07F007E007DFF7C429019C61205F29019C4E0FCA3E0FDE41202BD0B
:400E4000A804A905AA06AB077F567E0E7DC97C4012021B9019CA1205F29019CEE4F0A3E4F09019C4E0FEA3E0FF9019CEE0FCA3E0FDC3ED9FEC9E50539019CEE0FCA3E0FDF7
:400E8000EC1202BD9019CA1205D61201121209757B007A007980783F1200219019C61205D61201121202F69019C112060A9019CEE0FCA3E0FDE92DF9EA3CFAEF1203DD90FE
:400EC00019CEE475F0011203EF8096229019C11206139019C4ECF0A3EDF09019C112060AAF01AE02AD037C007810120594EF64FF4E70067E007F1080047E007F009019C6C9
:400F0000EEF0A3EFF09019C6E0FAA3E0FB9019CCE4F0A3E4F07D017F0112134E9019EAEFF09019ECE0FF9019C4E0FCA3E0FD9019ECE0FB9019CC7401F012102C9019ECE09D
:400F4000FFC0079019C112060AAF01AE02AD037C00EF54FFFFEE54FFFEED5400FDEC5400FCAD07AC06D0077B807A5B12116E9019EAE0FF9019ECE0FD121577229019C112DB
:400F800006139019C4ECF0A3EDF09019C112060AAF01AE02AD037C007810120594EF64FF4E70067E007F1080047E007F009019C6EEF0A3EFF09019C6E0FAA3E0FB9019CC55
:400FC000E4F0A3E4F07D017F011212ED9019EBEFF09019EDE0FF9019C4E0FCA3E0FD9019EDE0FB9019CC7401F012102C9019EDE0FFC0079019C112060AAF01AE02AD037CF9
:4010000000EF54FFFFEE54FFFEED5400FDEC5400FCAD07AC06D0077B807A5B12116E9019EBE0FF9019EDE0FD121577229019C8EFF09019C9ECF0A3EDF09019CBEBF090195C
:40104000CD7401F09019C8E0FFEFC39480507A9019C9E0FEA3E0FFEE54F0FE7F00EF4E70689019C8E0FF7E08EF8EF0A4FFAEF0EF2400FFEE3478FE9019CEEEF0A3EFF09033
:4010800019CEE0FEA3E0FFAA06A9077B019019C9E0FCA3E0FD1218709019CBE0FF9019C8E0FE75F008EE9078021205FEEFF09019CCE0FF9019C8E0FE75F008EE907803128F
:4010C00005FEEFF09019CDE4F09019CDE0FF229019CEEFF09019CFECF0A3EDF09019D1EAF0A3EBF09019D37401F09019CEE0FFEFC3941850739019CEE0FF7E08EF8EF0A40C
:40110000FFAEF0EF2404FFEE3476FE9019D4EEF0A3EFF09019D4E0FEA3E0FFAA06A9077B019019CFE0FCA3E0FD1218709019CEE0FF7E08EF8EF0A4FFAEF0EF2406FFEE349E
:4011400076FE9019D4EEF0A3EFF09019D4E0FEA3E0FFAA06A9077B019019D1E0FCA3E0FD1218709019D3E4F09019D3E0FF229019C8EFF09019C9ECF0A3EDF09019CBEAF0BC
:40118000A3EBF09019CD7401F09019C8E0FFEFC3948050739019C8E0FF7E08EF8EF0A4FFAEF0EF2404FFEE3478FE9019CEEEF0A3EFF09019CEE0FEA3E0FFAA06A9077B0141
:4011C0009019C9E0FCA3E0FD1218709019C8E0FF7E08EF8EF0A4FFAEF0EF2406FFEE3478FE9019CEEEF0A3EFF09019CEE0FEA3E0FFAA06A9077B019019CBE0FCA3E0FD12E7
:4012000018709019CDE4F09019CDE0FF229019C1EFF09019C2EDF09019C37401F09019C1E0FFEFC3941850549019C2E0FFEF60199019C1E0FF75F010EF9070101205FEE054
:40124000FFEF4420FFEFF080179019C1E0FF75F010EF9070101205FEE0FFEF54DFFFEFF09019C1E0FF75F010EF9070101205FEE0FFEF4401FFEFF09019C3E4F09019C3E0A7
:40128000FF229019CEEFF09019CFEDF09019D17401F09019CEE0FFEFC39418504A9019CEE0FF75F010EF9070101205FEE0FFEF54F1FF9019D0EFF09019CFE0FFEF5407FF4C
:4012C0007E00EF25E0FFEE33FE9019D0E0FEEF4EFF9019CEE0FE75F010EE9070101205FEEFF09019D1E4F09019D1E0FF229019C8EFF09019C9EDF09019CAEAF0A3EBF0904C
:4013000019F57401F09019F5E0FF9019C8E0FD9019C9E0FB9019D1E4F09019D2E4F09019D3E4F0120D5F9019F5E0FF9019CAE0FCA3E0FD9019CCE0FAA3E0FB1210CF901904
:40134000F5E0FF7D021212829019F5E0FF229019C8EFF09019C9EDF09019CAEAF0A3EBF09019F4E4F09019F4E0FF9019C8E0FD9019C9E0FB9019D1E4F09019D2E4F090199D
:40138000D3E4F0120D5F9019F4E0FF9019CAE0FCA3E0FD9019CCE0FAA3E0FB1210CF9019F4E0FF7D021212829019F4E0FF2242000001F44200020190420004014D420006D8
:4013C000011D4119EE004119F4FF4119F5FF4119F6004119E9804119E87F4419E4000000034419DB016E36004419D600005DC04119DA184419E02EE000004319EF000000C5
:401400004119F700009019C1EFF09019C27401F09019C1E0FFEFC3941850339019C1E0FF75F010EF9070101205FEE0FFEF54FEFFEFF09019C1E0FF75F010EF907010120574
:40144000FEE0FFEF54DFFFEFF09019C2E4F09019C2E0FF229019E8747FF09019E97480F09019C1747FF09019C1E0FFEF60219019C1E0FFEF14FF9019C1E0FE75F008EE9076
:4014800078001205FEEFF09019C1E014F080D79019C1E0FF75F008EF9078001205FEE4F0229019C274FFF01218379019C1EFF09019E9E0FFEFD3941840269019E8E0FF90A6
:4014C00019C2EFF09019E9E014F09019C2E0FF75F008EF9078001205FEE0FF9019E8EFF09019C1E0FF1217509019C2E0FF22905820E0FFEF540CFF7E00EF7802CEC313CEEE
:4015000013D8F9FFEF2406FF9019C2EFF09019C2E0FFE4FCFDFEEF2420FFEE3401FEED340CFDEC3400FCA907AA06AB0512187D904608EFF0227B0C7A0179CF12187D901978
:40154000C1EFF09019C1E0FFEF5407FF90586EEFF09019C1E0FFEFC4540FFFEF540FFF90586FEFF090510C7480F0905A837401F09058767444F0229019C8EFF09019C9EDA5
:40158000F09019CA7401F09019C8E0FFEFC39418501B9019C9E0FF9019C8E0FE75F010EE9070191205FEEFF09019CAE4F09019CAE0FF221217177F021216CB7F0412166FB1
:4015C0001214A19019ECEFF01214A19019EDEFF07BFF7A1879957D1D7C01120ECC7BFF7A1979B27D047C00120F7C229019EEE0FFEF70091215B39019EE7401F01216F7226E
:40160000EC4D4E700D78FCEF24E950032840FD2200007BF178DA0000EF28FF78FFEE38FEED38FDEC38FC50E7EF2BFFEE38FEED38FDEC38FC40F22205020304758600EF4E5B
:401640006027EF60010E7593009019C6E0F595A3E0F585A3E0F5848B938A838982E0A30586F0A31586DFF6DEF4E4F593F595229019C1EFF0905820E0FFEF54F3FFEFF090A6
:401680005820C083C082E0FF9019C1E0FEEE540CFEEF4EFFD082D083EFF01214EE22ACEAADA08B938A838982E0F96017A3E0F5EAA3E0F5A0A3E060F4FAA3E0F8A3E0F2DA46
:4016C000F8D9E98DA08CEAE4F593229019C1EFF0905820E0FFEF54FDFFEFF0905820C083C082E0FF9019C1E0FEEE5402FEEF4EFFD082D083EFF0221218099019EAE0FF7DB7
:401700000112120D9019EBE0FF7D0112120D7F0012185E1217DB22905820E4F0905821E4F0905A87E0FFEF4408FFEFF07F0012166F7F021216CB22EC4D6011ED60010C8BCB
:40174000938A838982E4F0A3DDFCDCFA75930022EF54016004D2AF8002C2AFEF5402FF9044F4E054FD4FF0221217F29019EAE0FF1214059019EBE0FF121405121820229062
:401780005121E0FFEF5480FF7E00EF7807CEC313CE13D8F9FF22905111E0FFEF5480FF7E00EF7807CEC313CE13D8F9FF22905111E0FFEF5440FF7E00EF7806CEC313CE13FA
:4017C000D8F9FF22905111E0FFEF5420FF7E00EF7805CEC313CE13D8F9FF229043A2E0FFEF4401FFEFF09043B2E0FFEF4401FFEFF0229043A2E0FFEF54FEFFEFF09043B26D
:40180000E0FFEF54FEFFEFF0229043A8E0FFEF4401FFEFF09043B8E0FFEF4401FFEFF0229043A8E0FFEF54FEFFEFF09043B8E0FFEF54FEFFEFF0229044F4E0F84402F0E89C
:401840005402FF10AF012274014FFF229019C6EFF09019C6E0FF9019C6EFF080FE229019C1EFF09019C1E0FF905B80EFF0228B938A838982EDF0A3ECF0759300228B938A60
:40188000838982E0759300FF228B938A838982EDF0759300227D808385888B8D909396989B9EA0A3A6A8ABADB0B2B5B7BABCBEC1C3C5C8CACCCED0D2D4D6D8DADCDDDFE14E
:4018C000E3E4E6E7E9EAEBEDEEEFF0F1F2F3F4F5F5F6F7F7F8F8F9F9F9FAFAFAFAFAFAFAFAF9F9F9F8F8F7F7F6F5F4F3F3F2F1EFEEEDECEBE9E8E6E5E3E2E0DEDDDBD9D700
:40190000D5D3D1CFCDCBC9C6C4C2C0BDBBB8B6B4B1AFACA9A7A4A29F9C9A9794928F8C898784817E7C797673716E6B686663605E5B585653514E4B494644423F3D3A3836E0
:4019400034312F2D2B29272523211F1D1C1A1817151412110F0E0D0C0B0908070706050403030202010101000000000000000001010102020303040505060708090A0B0CFF
:401980000D0F101113141617191B1D1E20222426282A2C2E30323537393C3E404345484A4D4F5254575A5C5F6264676A6D6F7275777A0356A9FC00513000400051C000103B
:4019C0000051F00010010000100001140008000140000A00014C0002000150000020000000000000000000000000000000000000000000000000000000000000000000005D
:401A000000000000000000000000000000000000000000000000000000000000000000000000000000000000000000000000000000000000000000000000000000000000A6
:401A40000000000000000000000000000000000000000000000000000000000000000000000000000000000000000000000000000000000000000000000000000000000066
:401A80000000000000000000000000000000000000000000000000000000000000000000000000000000000000000000000000000000000000000000000000000000000026
:401AC00000000000000000000000000000000000000000000000000000000000000000000000000000000000000000000000000000000000000000000000000000000000E6
:0200000480007A
:40000000110052020CE01480005A018701011501EC10011B01EC100140023D80CE20014101A540014201A540014301A5400144023020CC08014501A420014601A420014799
:4000400001A4200148032550A540C820014901B510014C01A420014D02B420EC08015101100200000000000000008000E00000E0000000000000000080000080000000004E
:400080000000000000000000000000000000000000000000000000000000000000000000000000000000000000000000000000000000000000000000000000000000000040
:4000C0000000000000000000000000000000000000000000000000000000000000000000000000000000000000000000000000000000000000000000000000000000000000
:4001000000000000000000000000000000000000000000000000000000000000000000000000000000000000000000000000000000000000000000000000000000000000BF
:40014000000000000000000000000000000000000000000000000000000000000000000000000000000000000000000000000000000000000000000000000000000000007F
:0200000490006A
:0400000000004005B7
:0200000490105A
:04000000BC90ACAF55
:0200000490303A
:020000001A469E
:0200000490501A
:0C00000000011E02806903011E109AAF6F
:0200000490402A
:4000000000000000000000000000000000000000000000000000000000000000000000000000000000000000000000000000000000000000000000000000000000000000C0
:00000001FF
