:400000000080002011000000B5030000B503000080B500AF47F2BC63C4F2000344F2FA62C4F2000212681A6000F0C8F910B5054C237833B9044810B10448AFF30080012181
:40004000217010BDC8E2FF1F00000000F811000008B5064B1BB106480649AFF300800648016811B1054A02B1904708BD00000000F8110000CCE2FF1F0881FF1F0000000025
:4000800080B485B000AF78607B68FB60FB681B68184607F11407BD4680BC704780B582B000AF78603960786841F2FC11C0F200014FF0040201F089F80346002B0AD04FF027
:4000C000010000F08BFE41F20420C0F2000000F049FEFEE77B6803F104031846FFF7D0FF02463B681A607B6803F10803184641F20C21C0F200014FF0040201F066F80346CB
:40010000002B0AD04FF0010000F068FE41F21420C0F2000000F026FEFEE707F10807BD4680BD00BF80B584B000AFF860B9607A603B60F86841F21C21C0F200014FF0040246
:4001400001F043F80346002B0AD04FF0010000F045FE41F22420C0F2000000F003FEFEE7FB6803F104031846FFF78AFF0246BB681A60FB6803F108031846FFF781FF0346F4
:400180009AB27B681A80FB6803F10A031846FFF777FF03469AB23B681A80FB6803F10C031846FFF76DFF0246BB691A60FB6803F110031846FFF764FF0246FB691A60FB68C0
:4001C00003F114031846FFF75BFF03469AB23B6A1A80FB6803F116031846FFF751FF03469AB27B6A1A8007F11007BD4680BD00BF80B582B000AF78603960786841F22C2155
:40020000C0F200014FF0040200F0DFFF0346002B0AD04FF0010000F0E1FD41F23420C0F2000000F09FFDFEE77B6803F104031846FFF726FF02463B681A6007F10807BD462C
:4002400080BD00BF80B400AF4EF2E723C1F6FF734FF001021A70BD4680BC704780B592B004AF4FF000037B634FF0000387F8333000F062FD4FF0010000F0B0FD48F20C1377
:40028000C1F6FF73FB6207F11C03F86A1946FFF705FF474BBB6207F1140107F10A0207F1080307F11800009007F11000019007F10400029007F106000390B86AFFF732FF82
:4002C0007B6903F10803BA6AD3187B6207F10C03786A1946FFF78CFF7B6A03F108033B6200F0CAFB62B600F079FC40F24520C0F2000000F08BFC4FF0010000F06FFD41F224
:400300003C20C0F2000000F02DFD42E000F054FC0346002B20D197F8333083F0010387F833304FF0010000F059FD97F83330002B06D041F24820C0F2000000F013FD05E0D8
:4003400041F25020C0F2000000F00CFD00BF00F033FC0346002BFAD04EF2E723C1F6FF731B78002B15D097F83330002B11D04EF2E723C1F6FF734FF000021A703A6A7B6B37
:40038000D3181B78184600F0E5FB7B6B03F101037B63FB687A6B9A42B8D34FF0010000F01DFD41F25820C0F2000000F0DBFCFEE71881FF1F80B400AFFEE700BF80B586B02A
:4003C00000AF40F20103C0F200037B6141F2B823C0F200033B6140F20103C0F200037B6141F2B823C0F200033B613BE03B691B68FB603B695B68BB603B699B683B604FF062
:4004000000037B600FE0FB681A68BB681A60BB6803F10403BB60FB6803F10403FB607B6803F104037B607A683B689A42EBD13B69DB683B604FF000037B600BE0BB684FF0B9
:4004400000021A60BB6803F10403BB607B6803F104037B607A683B689A42EFD13B6903F110033B617B69002B0CBF00230123DBB27A6902F1FF327A61002BB7D100F06EFE07
:40048000FFF7ECFEFEE700BF80B582B000AF4EF60C53CEF200034FF48062C0F2FA521A604EF61453CEF200034EF61452CEF20002126842F400721A604FF000037B6019E013
:4004C0007B68032B07D840F20003C0F200037A6853F8223003E040F2B533C0F2000348F20002C1F6FF72796842F821307B6803F101037B607B682F2BE2D947F2BC63C4F265
:4005000000031B78DAB248F20413C1F6FF731A704EF60853CEF2000348F20002C1F6FF721A6000F051F948F20013C1F6FF734FF000021A6007F10807BD4680BD80B582B03C
:4005400000AF7860396078684FF000013A6800F034FE07F10807BD4680BD00BF80B584B000AFF860B9607A60F868B9687A6800F01BFE07F11007BD4680BD00BF80B483B02D
:4005800000AF0346FB71FEE780B487B000AF786039604FF000033B614FF000037B612CE07B694FEA83037A68D3181B68BB60BB68FB73BB6823F0FF03BB6017E03B694FEA99
:4005C00043033A68D3181B781A46BB68D3183A694FEA420239688A1852781A703B6903F101033B61FB7B03F1FF33FB73FB7B002BE4D17B6903F101037B617B69062BCFD963
:4006000007F11C07BD4680BC704700BF80B582B000AF4FF48143C4F2000340F685021A8044F28203C4F200034FF018021A704FF48643C4F200034FF002021A704FF0402332
:400640004FF008021A704FF48443C4F200034FF003021A7044F2A163C4F200034FF48472C4F600121278D2B21A7044F22223C4F200034FF008021A8044F22023C4F200033D
:4006800041F251221A804FF00003FB704FF019037B6019E0FB784FEA4303DAB244F22523C4F200031B78DBB203F00103DBB21343DBB203F00303FB704FF4F07000F054F99E
:4006C0007B6803F1FF337B607B68002B02D0FB78032BDFD17B68002B03D14FF00300FFF74DFF44F20403C4F200034FF480721A8044F20403C4F200034FF007021A7044F2BC
:400700000603C4F200034FF000021A7044F20803C4F200034FF048021A7044F20403C4F200034FF000021A7044F20103C4F200034FF002021A7044F2A233C4F2000344F2A4
:40074000A232C4F200021278D2B242F00102D2B21A7007F10807BD4680BD00BF80B483B000AF40F2CF13C4F600131B78FB7145F66E03C4F20003FA7902F00702D2B21A70BF
:4007800045F66F03C4F20003FA794FEA1212D2B21A7045F20C13C4F200034FF080021A7045F68323C4F200034FF001021A7045F67603C4F200034FF044021A7007F10C07AE
:4007C000BD4680BC704700BF80B582B000AF72B644F2E863C4F2000344F2E862C4F200021278D2B242F00402D2B21A704FF00003FB7119E0FA7913464FEA43039B184FEA62
:40080000430341F26422C0F200029B183B603B681A683B689B889BB210461946FFF78EFEFB7903F10103FB71FB79072BE2D94FF090404FF01C01C4F60001FFF7A5FE45F219
:400840000303C4F2010345F20302C4F201021278D2B242F00202D2B21A7045F21303C4F2010345F21302C4F201021278D2B242F00202D2B21A7044F2A033C4F2000344F21B
:40088000A032C4F200021278D2B242F04002D2B21A7044F2C233C4F2000344F2C232C4F200021278D2B242F01002D2B21A7045F20210C4F200004FF03001C4F600014FF08F
:4008C0000802FFF74BFE45F21010C4F200004FF03801C4F600014FF00A02FFF73FFE45F22210C4F200004FF04401C4F600014FF00802FFF733FE44F22233C4F2000344F2A9
:400900002232C4F200021278D2B242F00802D2B21A704FF49043C4F200034FF001021A70FFF774FE4FF49043C4F200034FF081021A704FF00403C4F208034FF001021A7062
:40094000FFF70CFF44F2B030C4F2000044F2A031C4F200014FF00E02FFF700FE07F10807BD4680BD000000000230800800F0058000BF013800467FF4FCAF7047EFF31080AE
:4009800072B6704780F31088704700BFAFF3008080B582B000AF78600BE04EF2C023C1F6FF731B681846FFF7DFFF7B68A3F500437B607B68B3F5004FEFD84EF2B823C1F6CF
:4009C000FF731B687A6802FB03F31846FFF7CCFF07F10807BD4680BD80B582B000AF0346FB80FA884EF2BC23C1F6FF731B7803FB02F31846FFF7B8FF07F10807BD4680BD4B
:400A000080B500AF45F62003C4F200034FF000021A7045F62103C4F200034FF000021A704FF0040000F06CF84FF0000000F03EF880BD00BF80B400AF44F2A833C4F2000368
:400A400044F2A832C4F200021278D2B242F00102D2B21A7044F2B833C4F2000344F2B832C4F200021278D2B242F00102D2B21A70BD4680BC704700BF80B500AF4EF2E4237A
:400A8000C1F6FF731B78002B08D1FFF7B9FF4EF2E423C1F6FF734FF001021A70FFF7CAFF4FF0000000F056F880BD00BF80B483B000AF0346FB7145F62003C4F2000345F637
:400AC0002002C4F200021278D2B222F00202D2B21A7045F62003C4F2000345F62002C4F200021278D1B2FA7902F00202D2B20A43D2B21A7007F10C07BD4680BC704700BFA9
:400B000080B582B000AF0346FB7145F62003C4F2000345F62002C4F200021278D2B222F00C02D2B21A7045F62003C4F2000345F62002C4F200021278D1B2FA7902F00C02D6
:400B4000D2B20A43D2B21A7000F014F807F10807BD4680BD80B483B000AF0346FB714FF4B743C4F20003FA791A7007F10C07BD4680BC704780B483B000AF45F62003C4F26A
:400B800000031B78DBB203F00C034FEA9303DBB203F10603FB7144F20863C4F20003FA7902F1924202F590721278D2B21A7007F10C07BD4680BC704780B400AF45F21113E7
:400BC000C4F200031B78DBB203F040034FEA9313DBB21846BD4680BC704700BF80B500AF00F048F840F60140C0F2000000F00EF84FF0070000F01EF800F030F880BD00BFD4
:400C000080B400AFBD4680BC704700BF80B485B000AF78604EF60853CEF200031B68FB60FB6803F140037A681A6007F11407BD4680BC704780B483B000AF0346FB714FF4DF
:400C40006443CEF20003FA794FEA4212D2B21A7007F10C07BD4680BC704700BF80B400AF4FF46143CEF200034FF001021A60BD4680BC704780B400AF4EF28013CEF2000384
:400C80004FF001021A60BD4680BC704780B500AF4FF02800FFF77CFE4FF0030000F016FA4FF00500FFF774FE4FF0030000F00EFA4FF00F00FFF76CFE4FF0030000F006FABF
:400CC0004FF00100FFF764FE4FF0020000F0FEF94FF00500FFF75CFE4FF0060000F07EF84FF00E0000F07AF84FF02C0000F076F84FF0080000F072F84FF0010000F06EF846
:400D00004FF00C0000F06AF84FF0030000F066F84FF00500FFF73CFE80BD00BF80B500AF4FF00C0000F05AF84EF2E523C1F6FF734FF001021A7080BD80B500AF4EF2E623FE
:400D4000C1F6FF731B78002B08D1FFF79FFF4EF2E623C1F6FF734FF001021A70FFF7DEFF80BD00BF80B584B000AF78604FF00103FB737B681B78BB730CE0BB7B184600F05D
:400D800011F8FB7B7A68D3181B78BB73FB7B03F10103FB73BB7B002BEFD107F11007BD4680BD00BF80B584B000AF0346FB7100F031F8FB794FEA1313FB73FB7B184600F030
:400DC0002DF9FB7903F00F03FB73FB7B184600F025F907F11007BD4680BD00BF80B584B000AF0346FB7100F015F8FB794FEA1313FB73FB7B184600F069F9FB7903F00F034C
:400E0000FB73FB7B184600F061F907F11007BD4680BD00BF80B582B000AF45F22013C4F2000345F22012C4F200021278D2B222F07F02D2B21A7045F22213C4F200031B7857
:400E4000DBB223F00F03FB7145F22213C4F20003FA7942F00F02D2B21A7045F22313C4F200031B78DBB223F00F03FB7145F22313C4F20003FA791A7045F22413C4F200034A
:400E80001B78DBB223F00F03FB7145F22413C4F20003FA791A7045F22013C4F2000345F22012C4F200021278D2B222F02002D2B21A7045F22013C4F2000345F22012C4F287
:400EC00000021278D2B242F04002D2B21A704FF00000FFF781FD45F22013C4F2000345F22012C4F200021278D2B242F01002D2B21A704FF00100FFF76FFD45F22113C4F246
:400F000000031B78FB7145F22013C4F2000345F22012C4F200021278D2B222F01002D2B21A704FF00000FFF757FDFB7903F00803FB7145F22013C4F2000345F22012C4F282
:400F400000021278D2B242F01002D2B21A704FF00100FFF741FD45F22013C4F2000345F22012C4F200021278D2B222F01002D2B21A70FB79002BAAD145F22013C4F20003DA
:400F800045F22012C4F200021278D2B222F04002D2B21A7045F22013C4F2000345F22012C4F200021278D2B222F07F02D2B21A7045F22213C4F2000345F22212C4F2000265
:400FC0001278D2B222F00F02D2B21A7045F22313C4F200031B78DBB223F00F03FB7145F22313C4F20003FA7942F00F02D2B21A7045F22413C4F200031B78DBB223F00F0385
:40100000FB7145F22413C4F20003FA7942F00F02D2B21A7007F10807BD4680BD80B582B000AF0346FB71FFF7F5FE45F22013C4F2000345F22012C4F200021278D2B242F0DA
:401040002002D2B21A7045F22013C4F2000345F22012C4F200021278D2B222F04002D2B21A7045F22013C4F2000345F22012C4F200021278D2B222F00F02D2B21A7045F2D2
:401080002013C4F2000345F22012C4F200021278D1B2FA790A43D2B242F01002D2B21A704FF00100FFF798FC45F22013C4F2000345F22012C4F200021278D2B222F0100240
:4010C000D2B21A7007F10807BD4680BD80B582B000AF0346FB7145F22013C4F2000345F22012C4F200021278D2B222F06002D2B21A7045F22013C4F2000345F22012C4F2BA
:4011000000021278D2B222F00F02D2B21A7045F22013C4F2000345F22012C4F200021278D1B2FA790A43D2B242F01002D2B21A704FF00100FFF750FC45F22013C4F20003E2
:4011400045F22012C4F200021278D2B222F01002D2B21A7007F10807BD4680BD38B50E4D0E4B0024E81A8510AC4205D00B4951F8242090470134F7E700F08CF80849094AC5
:40118000541AA5100024AC4205D0054B53F8240080470134F7E738BDA0120000A0120000A0120000A812000010B50023934203D0CC5CC4540133F9E710BD8218034693425E
:4011C00002D003F8011BFAE7704770B592B10B4605461AB928781978401A70BD10F8016B1C780131B442F5D1012AF3D0013A002CEDD1EFE7104670BD000000005249464656
:40120000000000004E6F20524946460057415645000000004E6F205741564500666D7420000000004E6F20666D74000064617461000000004E6F206461746100436F6D6547
:401240006E7A616E646F0000506C61790000000050617573650000005465726D696E61646F000000305100404000C05100401000F051004010000000014000100014014014
:40128000000800400140000A004C01400002005001402000F8B500BFF8BC08BC9E4670475100000089040000F8B500BFF8BC08BC9E4670472D000000C81200000881FF1FD1
:4012C000C06100002000000000000000524946467155000057415645666D74201000000001000100F82A0000F82A000001000800646174614D55000080808080808080808B
:4013000080808080808080808080808080808080808080808080808080808080808080808080808080808080808080808080808080808080808080808080808080808080AD
:40134000808080808080808080808080808080808080808080808080808080808080808080808080808080808080808080808080808080808080808080808080808080806D
:40138000808080808080808080808080808080808080808080808080808080808080808080808080808080808080808080808080808080808080808080808080808080802D
:4013C00080808080808080808080808080808080808080808080808080808080808080808080808080808080808080808080808080808080808080808080808080808080ED
:4014000080808080808080808080808080808080808080808080808080808080808080808080808080808080808080808080808080808080808080808080808080808080AC
:40144000808080808080808080808080808080808080808080808080808080808080808080808080808080808080808080808080808080808080808080808080808080806C
:40148000808080808080808080808080808080808080808080808080808080808080808080808080808080808080808080808080808080808080808080808080808080802C
:4014C00080808080808080808080808080808080808080808080808080808080808080808080808080808080808080808080808080808080808080808080808080808080EC
:4015000080808080808080808080808080808080808080808080808080808080808080808080808080808080808080808080808080808080808080808080808080808080AB
:40154000808080808080808080808080808080808080808080808080808080808080808080808080808080808080808080808080808080808080808080808080808080806B
:40158000808080808080808080808080808080808080808080808080808080808080808080808080808080808080808080808080808080808080808080808080808080802B
:4015C00080808080808080808080808080808080808080808080808080808080808080808080808080808080808080808080808080808080808080808080808080808080EB
:4016000080808080808080808080808080808080808080808080808080808080808080808080808080808080808080808080808080808080808080808080808080808080AA
:40164000808080808080808080808080808080808080808080808080808080808080808080808080808080808080808080808080808080808080808080808080808080806A
:40168000808080808080808080808080808080808080808080808080808080808080808080808080808080808080808080808080808080808080808080808080808080802A
:4016C0008080808080808080808080808080808080807F8080807F7F8080807F7F808080808080808080808080807F8080807F7F8080807F7F7F807F7F807F807F7F8080FA
:401700007F7F7F80807F7F7F7F80808080807F808080807F80808080808080808080808080808080808080807F7F807F7F7F7F807F7F807F7F7F7F808080808080808080BE
:4017400080808080807F807F7F7F80808080807F7F7F7F8080807F7F808080807F7F7F80807F7F808080807F7F8080807F7F807F7F7F7F7F807F80807F7F7F80807F7F7F88
:40178000808080807F8080808080807F7F80807F7F8080807F7F807F7F807F7F7F7F80807F7F7F807F7F7F7F7F7F80807F7F807F80807F80807F8080807F7F80807F7F8048
:4017C000808080807F7F808080807F7E8080807F7F7F80807F808080807F80807E7F807F7F7F7F808080807F7F80807F7F7F7F807F7F7F80807F808080808080807F7F8006
:401800007F807F7F80807F7F7F7F807F7E7F7F7F7F7F80807F8080807E7E807F7F7F7E7F807F7F80808080807F807F80807D80807D7F7F7F817F80807F7F7F7F81807D7ED7
:40184000807F7E807F7F7F81807E8181807F80807E7F807F7E7E807F7E807F807F7E81827F81807F807D81807E7E7F7F7F7E7C7D7D7C7B7C7B7C7B7E7F7F7D7E817E7F78BE
:401880007C8081817F7F7D8285877F7A838882787A828283807E827E8383807E7E7F84877D807E8087837F76777C82837E7F7F87888B888083828583897F7C8187938B81D0
:4018C000838E8E9581777B7F87777A757A83929884878F99938B8178737B85796C68767A837961657D847868607F827E8076726D7B797E7A69797C7F8582878587807C8579
:401900008077777D818875697A81817A77727E858E9F907F9099968F8482788681837462706E7F6E6977867E7B7F75867B948F7156709D99844C6588A48D6B7085A3A9AE94
:40194000605784BCBA74647B8F7E8875635B6D8089716680758A756E7887919B906B7C8EB89B868089A5A9B4989591AFBFA38E9CB3B5B08B737B989BA27569889B97757FED
:401980007B959A8B8995937C9389745D606668512B3C473C354129425C7082503A3C717A65443148607F55443657816B66586B83A09A7A6C8EBABE975F7696B0A380556020
:4019C0009AADAB645B94CABD767FA5C0C78E7D9696A2898C868991777F726775A39E765E72B0C9907E8AA4C0ABAA7C989D8E996A7186938C7E7A7A85977A6C72849D8C7775
:401A00005E8C91887E606F68645A526F6B667A6C755F6584786A4650656C4B25334D533D29384F6853333F3D7780655C72A7AA98766475A19F9E777BBFD1CD9999AEDCE1EC
:401A4000BCA9A8B6B1BA9EA0A4ADB8B7A5ACBFACA790988C91A99F8C657FA2967A687F9598757AA39888788D977A6A6B8D90717F7F6E82A394482E6A9A7E5C445F878E7642
:401A800042647970645750455463685A43347D9D6E294291826B4A534A63817663536F706E43282C5067442F4A719CB1A28B82CEEDD08CA3FFF6A37F9AA4AB959B919FA16F
:401AC000B4B8B2BFA8B9BCD1B79C89A6CFBC9F98C3C0D5C2C9DDCDC4B7CDB8BBB3A7B0AA988BA7938581746E4845425750354E5560565B6B5D4A4A51281829493A2A101C48
:401B00004B271C2A4D4125364E54263173641216475A4A3845788954457886437CC3D89C68C6EFD97A96D2E1B16099CBB585ACCCC1B9BAF2FFF7DCEAFFF6F1D4CCB9B2C1A2
:401B4000C3A898ADB09D98BAAD9BAEBBC8A7A0978DA2817A5A485C2F181A1A190C0D011916031134480F05043A3412191C190804322407053D6C6C40244588A88B8098BE87
:401B8000ACBCB0999B9FADA5AA81677A7DA0A78FA1DAFDFDEFEDFBFDF9FBEAE7DBD8C3A2A19D978D8A868AB0BAB0B3C1C3BDC6B9AC9B94A1795C5C45443719221A080B1BEA
:401BC0002B0F1327302A1A2641351D1F2B30191F1D0012372E2F3044614B48617D8192856D828D97A3A48F95B1B49BA9BBB3A9C2EAE5E1CBCCEFF5DFE3DAE3EEE5D7C1C715
:401C0000D0B5A3ADA6B1BFBCA3A4AFB8BAA298968D82968561495D6F43191A1515290C00000C1B1C01052512012A4A1C0844774F42605E51728B6B5777A39987766E77B5D3
:401C4000BC857B8190A2AF9DA7ACD2E9DBDBECF4E8FBE3D9DFE4C8BFAE9EABA39D808C8D9DA8B0B0B0B1B2C4BFB8A7AAA1B3926F5F463D2F1F0906000B08000A0803021D2D
:401C80002E3F393B5D6937386F58425050365A855B1E2475866B4F5677919B8C8085BAC6C7BDAAC0DEDFC8C9C3D7D3D6C4ACACC0D9B0A99BAACCD09B84A5B8C5B4C8C0BC4D
:401CC000BEC9CBBBB2A6ACA09B715B4F4E3D1204000C0C15010C020B18030015403E483D4023377D7443183972843D23356A896652496B89B59F868BC8F6EBE0C1DFF4FF4F
:401D0000D8C6C5D8E5BBA28FAAB1AC868896ACB1A1AFB2C9C8E1EAE7D2E1ECD8CAABA6A9A36E544C4134290F01070908000306241900012F45361C274F6259402F466153F1
:401D4000483A4855695F5B59759297AC909CC1E0DBD3B4D0ECDBC5A8B7B8C7AE9985AAA9A3AA9BABAABDB2BBA4C2D9E1D5B8C7D2DDB7B5A9BBA0918264645B52200708261F
:401D80000E04050C111616061B394C2C1D31797F4F4674805748516C5B474F80684C4F78A0958487B5C5D5BAD5D2DEE7E5CABDC1BEB89AAB9E9C939EA4B1A29CB2A1ADB58A
:401DC000D0CCD1CDD3CFD9DCBFBBB2B69D8F79624444321514010400050709010E0F0009172E2E3A47525A5D58536A6D605667716764757E7378848E9AA9ADB8BFBFE0EE89
:401E0000E3E0E9DFD4DAD6DAD5C9BAC7D1BDB5B9B7A9AFB5B8B6C1C1BEBAC4C4B9ACACC2AD8E77786F593B2A281001000203000000000100000D353A1B183E5D4A406471D8
:401E400062555D71785F57818E76637694989A8C91ABC5C2AFC1D2D3C9D3D3D5D9DDDCD3DBDBCBBECBC6C1B5BDBEB7CCCEBFB4C8CBCDBEB1B2ACA1887A786E4C2E262A0E6B
:401E80000700010007080000000E162D25140D28705C272462705B50595D59757A7F72708DABA59098B3BCB4BCC4C1BEC7D1CFC6C9CDD5C6C1BFD5DBB5AFB7C9B2A4B0C7F3
:401EC000C4B5B9B0BCC1BBAEA6A19C8D907C61615C4C372D16181619080100000F0806001A1B1C302E2B3F574F3E4F6B666D6F7C757E928A8295AEAA9498B4BCBFAFA7B9F0
:401F0000C9BFB8B6C6C2BDBEBEC1C3CDBEC4B4BEBABBB9ACC2CECBAAB6C7CFBAB2AFB2BA997F70807252504E3123242B07000C0D0A000A0520130B123B28173D4A4F224E9D
:401F4000566979614D69A8A58575ACAEABA0A5AAB0BDBDBAABC4C5C6A9ACB1C7C3BBB0B5CDD4D2B8ACB8D7CFB8A5C9DBCFBBAEC1CBC9AFAAA4A2918E8670635F59472E2220
:401F80002E241D0207090B0A0408020D172F22202937403F3E3342777F525B88B08B6B88B1BAA79CADC2BAC8C2BAB6C1CFCAB6B4C7C7BCA8AEBBBCB4C0BFB6B4B4BFB19FF1
:401FC000ABC3C5B6ABC5D6C4A09CB3C29C7A7A817D64493E3C352D11090407040A030003122004030F40391F062754504F426461838A91837FA7BABC8F96ADD3C3B1A9B8AF
:40200000D3C3B9AEB7B5BBBAB49BB4CBCBB3A5C1C3C6B5B3ADC1C9CBBDB8BCBDD2BAB2A2B3B5A4907879806D4D403845290D010D150300000505000B281E0A0B3838242249
:40204000345151504E5E6E8B868186A5BBA69DA4BBC0C0AFAFB8C1C7B9A9A2BBC0AE97A3B6B7B9A2ABC8CBB8ABBCC6C3B6B4BEBDBDB9BBBDB5B3B2B3B1A1958E928C6D56DD
:4020800059594932363721191019180E081521191D2C3418323B4D542727598455405E96A2968092ADBEAC9BA7ACC9BDBFA8B0BEC0C0A2A0AACBC9BE9DAECCCAB6A6AFB14A
:4020C000C1BCB299A3B0C3B8A9A4A6C5BCB596A6B4A4937B74797668563D474132211916170F0C13050C0604121B2A30161B36534D3B476B796A7D8AA08E9EB9B2AFA5AD1A
:40210000BACCB3ABB2BEB9C0AEAAABB0BAA9AAAABABDADA8BCC2BC9FA8B9B7B8AAAEB5C1B5BAAFB0AEB1ABAAA37D8E8F8D625465674C333C3B321F2227291122292B2822CD
:4021400029394A3F4E394D5A67524366868E68515BB4A77F69A1DCC1A98DADCBD9B1B0ACB9CFC3B09CA6A6C6B19E93A8C5BC9F98B2B3AC989EA6A6A4B7B4B1AAB1BAB5B4EB
:40218000A3A6A8A492877F776D60554C3935361E19191607000C1E0E06011831241B192937413C303163835F4C6595AB847193BCBD999BBAD8CAB7BCC7CBBCB4BAC0B2ABCB
:4021C000A7B5B1AAA5B0C1AEA8A7B4B2ABA6B0ACA6ADB4BBABA3A6B5ADA3A29B90978B83736471625C4E4040493E2920252C291816251F231D323E3B33303E4A4A3C393977
:4022000056555752566C7788847F7AA2B6B6A8A0B1C1CFC1BDBACAC6C7BCADAEADC1BCB9A39FACBDB49B8F93AA9F9487979EA1A39FA6AEBDB6BEB9B2AAA89E96967F6E63F8
:402240005E4A352D34231D0B0311120B02081020191D333D474B494F4C57645B575876837A6D72889993878F9BB1A39DA8B4BCB8B8B7C0C0BDC6CBC1C1B9BFCABCAEADBA3F
:40228000C0BDAAA1A2A5A79D999E9A98A5A7A29F9DA4A7A6A8A99E95978E897D655E605C4432231F1911100A0A06060908121E17191F46554D443D55676152646D736B6B85
:4022C00094A69A879DB8BCB2A9ACC4D4C9C7CCD5D5CDC9D7D5C7BAB6BEB8B4B4B7AFB6B2B3B3A6ABA7AEA7A09A9DA3A7AA9B92949C9C988D847D7E79717063534D503E356D
:40230000312E28180E11170D110E151C1916213B3530303C5959494C595F554F607682767E8894A1A9B9B8B5B6BDD0DCD4C9C8CED2D3C8C6C2BABAB4B8B4B2B1AFAEABAAA4
:40234000ACB6B3AEA9A6ABA39C9E9DA3A19FA8A8A4A09E9CA5A38D7D7D78686462513D332D27241909070700000204060006151A181C34453E3544545C62625F615C5763A8
:402380007284897C758FADAFB3BEC5C8C9CDD7DDD9CFCDCED4D0C9CACAC8B6B2B9C1C6BBADAAB7B5ADACAEA8A0A09C9D9C9EA09EA29A98A2A19E979394887C706B685E5040
:4023C000494B39292528291E130E0C0A0B0B120E08111621303C484E5367736F6D6C767F75696A6C6D6F71818F90909DB3BBBBCCD5D4D8D9E2E6D9CDD0CFCAC3C0BAB5B193
:40240000A9ACACA7A2A0A4A6A19BA2A6A49B969A999A9B9E9EA6AA9E9C9E9D928E928479665354514A423D32241F1F26261B1518171015252723202B383437485461605161
:4024400055595C5B5F62514E4B658990979EA19FA9BED2E3E9D8D4D4D2D2D0DDCEBDAFA2AAAAB2B8B4AEA5A3A7A8B4B7BBBBAFA8A9B2ADA8A4A0A39A969FA19F948B8F8DD7
:402480008B828483746D625C5453514E4A3D3531322A23211D10060A0D181E22231F24252E3F4A565E5D56565D64706E6568707A848C9EAFABAAB5C2C3C4D6E3E1D5CBCEE7
:4024C000D0C7C1C6C8B5A6A7AEB5ADB0BAB8B3B0B8C1BBBBB5B1AF9D999A9A938B8E87807C7D878B8787867E7A706C69625E56554F423E3E39302C291C120D1013121B2A77
:402500003027293038404B56575C545453535B5B645C50515E7A8992A3B1B0ADBAC9CDD9EBECE5DCD3D0D0CBC6C1B8ACA4A3A8B0B1B9C1B7B4B4B6B7B9B8B4B8AC9F9B9F74
:40254000A39B999693918D8B898B8889898480746B685F5C58574E3D362F271E1B1F1D150C04020308181E282A2229344D595F6C6562615F6C707678655B4B576C6D8AA162
:40258000AAA9A3B1BCD3E6F1FDF9EAE0DCD4D0CEC9C1B1A29B9E9C9BACAFB2B5AFADACAEB1B9BAB1ACA8969296979D99969089817E817F7C7C786E6B5F5957544F4C4E3C08
:4025C000322E26221B1E1E1911060B0C080F213230323C45484C5A636C69636C74787C7C796F676160798694ACB5B9B7BDBEC3D6DFE7EEE9E1D7C6C0C2C2BAB8B7AB9F9D78
:40260000A0A9B3B2BABDB7AFADB1AFAEADABA69C908E8B8788898980787677757372716A615B514D4741433F3A322C2A22202225231B1C1E1B191C232C2A2E3F4E514E622A
:402640006C656769767D82898D8B77696D655D6D82979AA0A9ABB4B9CFE3E4E8EEE9E0D8D9DBD4CBC2C1BEAAA3A9A8A6A8B3B8AAA5AAAEB0AEAFB1A79F8E83807B848685D5
:402680008782827C6D6D7374706D72675853453F3E3E3C3B3931252226262C303030292927262F34363D3E45474B56545A605E6C737577737A787B87878C83767E88909F02
:4026C000B2C6D2D0CFD4DADDDFEAECDFD9CFC5C2B6B7B9B0A9A8A8A29D9EA2A0A5A7B1B3A6A7A09B939590898274726C686A72747475706D6866686D695F5E5C4C403C3CC1
:402700003C393A3B3730241C201E202C30372F2C322E373C465C5C54585655535E727472757A797C818C96949A989486747B808B9CA5B4B9B7B9BEC6CDDDEDF3F5EDE0D765
:40274000CEC7C2C2C0B3AAA69A94979A9FA0A5ABA59D9C9994909395938E8C8983807E7C7C7B74716F66666A6C665F5D534A43413F3A383837322C27292C292B2F31323059
:402780003538393F3D414D545A60605F60697279838C96949095908C8F908D8A877D797C7F8794A3B1B8C3CCCED3DADFE4E3DED7CEC7BEBBB7B0B0ADAAA39898959399998B
:4027C00096999998918E908D8C8986837976787A79797F7F7B7B7E79747776736F6C646159484749433C3C393738383D393336363436383B3D3D3A3F473F424C4E4E4F59E4
:402800005C5F6C747C828389918F8E919699969594928180909598A2B5BDBFC3C9D2D0D9E5E8EAE3DDDBCDC1C3C5BEB3AEA39B8F888D8C898C95959294938F8A8785837E89
:402840007875747270717274716D706F6F6F7375706F6A645F59595753504E4B47433D40413C3D3A36383F40423F3C44494E525759575F5F5B5D5A595C636D6D72746E718A
:4028800073838A878786847A808B8E9BA7B1B7B7BAC2C7D0D7DCE4E2DAD9D7CFCDCECBC8C1BAB4B0ADA7A4A3989291908E868A8D8889868481777777726F6B696A64626AB9
:4028C000696868656867666B6E625C5D5555504B49453D383F3D3B3D3E403F3C3E434546424343424D524C4E5053584F4C51565D595C6364696F7474737574737471737C14
:4029000082919BA5AEAEB4C0C7CCD3D9DEE0DFDCDDDCD4D5D2CEC4B8B7B5AEA5A2A49C9A9A989793939192928E8F8E8E868583726A66606463626461605C63696E726E6DC5
:402940006D6D6E706B6E6A686D5B5D5A5353565750594B4046424B524E4A4546514F4F555456585D5C5B666C6A6C70767777757B807A84847D82867F81868089959DA3A84D
:40298000B6BCB9BEC7CAD0D5DDE0E0DBDBDDD2CFCDCDC7BEB5B1B0A9A29E9D9493918C8D87878B8A898980807B787976756F6B64635E5E5E5F6060696361616462626561B9
:4029C000666260605D5B605A5C6556605E515E554D5E554D584A59554B5C57575F5A616A665F656F767D7E7A76818680888B8A8B8B888F8D8A949198988E8F9199A1A2A6A7
:402A0000ADADABA9ADABB1BAB5B9B6AEB5B3ACB4B1ACAEA7A6A09C9F9C9C9A938C8A8986817D807D767777716B6A676B6860615C5E635D5A585E5A525C5951575855575344
:402A4000555A585A565A5E5C5F5C5D615D5F625C5E61616764626364666766686F6D706D6973756D7278787E75787C7A85817F898781858585898A8E8C8A8D8C8A8F908F02
:402A800091949393949397949094939392959A96989A9292928F9496959799949391908D8D8F90918C8D878387847F7F7F7B7D7C7A7070756F6B6D706E6F716F6A7071694A
:402AC00063676B6A6D676668696B65636A6D6C6F6A6A6E6C696A6F717473767372757171717C7C7C81787D7E7E777582817F7F818283837D7F828787868A81868C84838941
:402B00008C8A8F8F8D8E8F8E898F928E8F918C8B8C8A8A8A8B8D8B8B8988898588868188868386858381817F7E80817F80827D7E7F807F7A7D7E7E807B787A7A7C7B797B56
:402B4000797A7F7D7C7D7C797A77777A797B7A79797A7C7C7B77777D817E777A7F83827B797F837F7A797C80817D7B7D80807B797C7F807D7C8183807F7E8184827D808221
:402B800080817E808485807E80818381807F838482817F7F80807F7F7F7F7F80807E7E80807F7F7F8081807E808181817E7D7D7D7C7E7D7C7B7B7B7D7E7D7C797D7E7D7C53
:402BC0007B7F807D7A7C7C7D7E7C7C7D7F7D7C7C7D7F7C7C7C7A7E7F7F7D7B7D7B7F7C7C7B7D7D7C7C7D7D787D7A797B7E7A787F7A7A7A797D7E797B7B7C787E807B797BD0
:402C00008077807F7F7B777D7C80777B7E7B7C7C7B7C7B7D7B777B7D7A7A7C787D75797D7D81787A77817D797974797F7C777B7578797A7C7C7A797E777A807C77778082D1
:402C40007C787B818283837D7A857F818278847F847F7E847D867E7B7F7C82817B7F7A817C81867C7E827C81837B867B85878F796BA7A0856C7288888A84767386947D723B
:402C8000596EBB88696D7976799063788E96AD9B7D775C7392716563816A6C7A7778606A646F7C7468696B6F68727F6F6B687C7C767C78726A6979726374707171797E6AB8
:402CC0006C89806E8F929994989A8B989B9E916B798D90907F786868808C7678767286798F836473858C8085887A6D7C847C7E7973737F7C7178777976747A7F83767E7FD7
:402D000077827F737B8E7575777C8A7C82777E74789488757791868A877D8B898A8B8C848F988F81818D93948A838892908F838087848580887C75837F757E85807F7973D0
:402D400080857573777570777E7F726D72626C807B686062666E7172685E646C6B7874606B756F6D6F6B7067595F686E6C707B7D7781959B9DA6A6A7ADB5C7CDC1BEC8C7C3
:402D8000CBD0C1BBBDB9B5B0AAAEA79AA7A99FA7A194A0A19D9FA09D928D8A8B938E7A746F6E60585B483D372B3130282A191A271412201E1F1A11171F1D182A3B31343DBC
:402DC00039474A3E4046504D41526975818094A7A4B3BDC9E5DDD4E4F1FFF9E6F6FDF4EADCEAF1D0C4C3BEC2B2A0A6AAAAA08E9DB4ACA2A8BCC8BDB8BFC5C7BDB1B1A5931A
:402E00008A848578584C4D4A4129261F080B1716170E060C070F2015131E1F231C132A342925192635211E2C2F36272B566569777F9AAFB6D1E5F1FDF9F6FDFFFFFFF8F663
:402E4000ECE6E2DDD6C7BCB9BABEB3ABAEAAABABA6B1B0A4ADB8C1C7C2C6CEC6BEBAB8B5AB9D8F877F72695F54463530302A25180D13191B1C151D252629282C302C2E2FC2
:402E80002C2B2320263039382F26252F3A3F40475660646E84A2B3B2BBD2E4ECE7E9FAFBF2EAE6EBE2D2C9C6C3B9B1B1B1B1AFAFB3B2AEB0B6B8B7B1B3BBBABDC1C2C5BAC5
:402EC000B3B0A8A2988D867B6F635B52493E37342B232122251F1B1B1C1D1B1A1B21282625252B302E32353C42403F434F554B414456646972829295959FB4CDD1CACBD66E
:402F0000E5E1DBDDDCD3C4BFC2C4BFB5AEAAABACAAADADACABADB4B3AEB0B4B5B1B6BEBEB8B0AFADA9A2978D837B736B6A64594D44403731302C2620252927231F1F1E1EFC
:402F4000211E20232423232F3837343743484B4845484D5258697E87868B9FB3BBC4CFD7D7D8DFE7EDECE4DDDADAD5CFCFCDC2B5B6BEBBB4B2B6B6AFAEB0B1ADA6A1A1A94D
:402F8000AAA5A2A5A59A939593887B77766E67625D564F4B484746423C383A39373738342E2E333331343635353A40423F4146484E4F4C4C4D4E5565757D7A808A9198A2D9
:402FC000B1BCBDBBBFC7CDCDCACACCCAC2C1C9CEC8C2C1C6C1B8B5B5B9B3AEACAAAAA6A09C9994918C8D908B817C7C7B7A77756D7070686B6E6F67616264615E5D555553A8
:403000004C4A49494540424441413D3B3F4243444545484648443F4543494E5761646C707279828894A0A6A4A5B0BBBCB7BABDBBB6B8BCC2BFB5BBBAB7B9B4B2B8B6ADADC6
:40304000AAACAEA4A3A49A9998928F88847F7C787878707474736E6C72706D6D6F6F6F6B676363635B5A5A58535052504B494A464845434A46474645454446474946464729
:403080004A515862686B6B6D7A797D92979C9BA0ABAAB2B9B2B6B7B3BABBBDBDB7BABABBBCBAB8B7B8B3B0B3B2A9A49D9FA19693918F8D86878684817D7F7C797874767673
:4030C0007270706A6C726C6C6A6B6B6869686B63636966665C58605F5553525055524E51515255514B4F4B474F4D555751585D6067706F6F76797D88919395919E9F9EA9E2
:40310000A8ACADA8AAB3B5B0B1B5BBBDB7B4B9B8B9B8B4B7B5ACADB0B0AEA3A6A49D9C969591918B807B7A7D7672736E6963696C6A646167656661626863636167676562D0
:403140005C61666A605D635D5D5D5E5F5A54545B5C5E5B565D5B54565A58575557605E5B606975747070777F89908E9093989DA9AAADB6B1B3B5B7B9BABABABAB8B6B6B450
:40318000B0B2B0ADA59FA0A39A9BA097968E8C8E8D847B7D7D78736E6B6D6B68626361636862605E66696C6860656C6B61606367696C66686B6B706C686568666363605E46
:4031C0005F615C625E585C5B645F5A5E5463716658515A5F6765696E6766758182898E9298A49BA0B2A7AEB6B3BAB8B6C3BCBDC8BEB9B7C0BAB5AEA8BCB5A3A5ADAD8D750D
:4032000091A08881707380879A816F60667E7E805B4B4F6084866F656F7783777D7B6A6B759995785D5066725D54554137344244483617242626282517160A000E0500004A
:403240000C3152574E487AA499B1C9D4CEBEDDFCFCEFDFE0E5E2DFD7DDCCABB3B4CBC8A7A6A4A9ABB1B6AFB0AD9FA7BFB8B4919DBD9FA493908F8283839A978A8D9698A745
:403280009E98A38E806E6F77624E4B4B3D3737392F18081A1B14110002080903010A0900000024373143505074AEC3D5DCD3D6F3FCFDFFDDD1D8D7D5C3ACA39A919BAAA5E4
:4032C000918B91B2BDB8B9BEB4B9E3DAD3C6B9C0BFB8A5A398898A887F8A887B898388968F83818388737173605B555953463633210F1614080609071405131C14190E03C1
:4033000001426161543E5198C9B1B7AFC0D6DBE7D8D1BFBCCACEB693849BB1B09F95958C99AEB9B29E9AB7D2DEBFA8BDC6D5D0AEA4A29DA59E958E7C7C919B978A838E933B
:403340009B857E7F75766E685A533A433F3B381A1D07141513101216101B1A382115121219235D66573567C2C6AE9F9BBCEFD5CED5BFC2BCC5CEBC988EB3B7A38D7C88A491
:40338000A79B98A0B2B0B7C7CABEB4BDCED6A996ACB6AA968D9A9E959C8A9591858B888D746566736B5E5854524B4F3B332D29212326161F1812212010262C323E2F362F23
:4033C0003C42364B677A756B7FB0B89F96AAD2D7BEABBDD7D0CAC0C8CAA7A5B4BEB29990A0B3A99391A6AFAF99A0B0A7ABA0A3A9A29B9F9594939992868F89878789847CD9
:40340000787B756C6B6C645A594C564C4645444A474836413B403F2E3B3B443A4549424C4A53555348575B505C6E8982726E8EB19E929AABB8B4AAAAB7C8C7BBC6DED8C2CE
:40344000BAC4D9CAA5A6B5BAB3A2A5B6B8AAA1A2A9B09F8D909A8E8289918975717F8D8A746F7C827E68666F6D726F676F6F676A637783603E3778835B474368715D4B5358
:403480004C59685F62525D67665F56555F6E5E5F696963656A6D7577776A697E8686858190999A9CA3AFABA9ACABB7B2A6AEB0B8BCB1A4AFB8B3ADA7ADAEA09D9B939D9202
:4034C0008889919086817C847B7D7E777777757480776D6C69686A6966646468696A7069686D6A717265525B65849D5D3758798A7B5A5A69656566605E6769636463666921
:403500006E69707E70636679837C7174868A878581848F8F87828C8F9499939496989796929F9F9EA09CA6AAADA3A79E98A0ABAD94949EA09A948E908B8F9085858785810C
:403540007C76817C6E707A7A756F6A767268646A6564645D6468675F6067706E5D5B696F6B625E6E6E696D6C73777271726E70757473737675727476737475777D7675799D
:4035800082837D7F7E8685868483868A8B8888898E8A8E8D8C8C898B8A8B8D8E8B8C89878C8E8885838B8B868780848283848381838182857F7B7D827F83827F80808182A2
:4035C00083817C797C7B7B7B7C7774777F7E727376767375757171767473746F737773757774767674737A7A797C7A76777F7A7C7A7876787D7B7C7C7D787A7D7C7B7C7BBB
:403600007B807F7E7F7E7F807E7F7C7D7E807F7C7C82807F8582807D7F81817F7F7F7E7F807E7B80818081827D828682807E817E8180818283807E81827F7B8284807C7AAC
:403640007C7E80847F7E7B7C84807C7C7E7A7D807D7E7E82807F817C7F7C7A7D797E7B7B7A7B7A7C7B777C797A7C7C787C7D7A7A7D7B777A7A7A7B7E7B7C7B7E807C7C7A30
:403680007B787A7E7A7D7B7C807B7D7F85827E7D7D7E8588797B7C7C7B817E7C897F81827E7E817B7F867D837F7F8B7F797E81867C7C80807C818B82817C81857E867D7E3C
:4036C00082788080817E7E81807E77887F777B7D7673857B7D7D7D7C777B7C787F79767C7A7D767F81787B7B81897F817F89867A85807C7A7F7A82847F81848A8078878641
:403700007B847A8D8097A084546ACA6D636DA899507A7E9A768B6368A29875638A9378517393844AA2B672738B9A687275826599A8625B919F5A76707F8461829E766B7EDF
:40374000A58969867D886B73708B796E67818B7276778686A886705F83846861769B77806F796A8769616E72905293BF9E2B8C9E309FABA668849E757571A17F6079987004
:403780006D837D9B676E998C7763908D7B7C778781888D7F7F84878B7A7C7E7876798D7D81898A8D7E7D806D7781667F807C7B7977758681747393797184817780847A8461
:4037C0007C847C7D8B787A8686796D77837B7476837D70807B867F698B8578737D858C856C8C8B727E81798E7E7A8180886F7D7A7C7F8A886B7C8F896F7A8381738089883C
:403800007E758C6D88876C929E7C5AA5A954658194885D8E976B7074977F6D7787946D928E86728B7B687878725D717DC67856B3876362938C6A798284917B768374938FBB
:403840007C7B879A775C948456596E8B4E7B6E5498656C839B80647B888A7F9B728D9B6E6275A28A7B81B68C537D88928B728089818E6D708CA8613DA66C5E7D9784518F21
:403880008F7C73848B7263768F706775A3766794896B4D7A8B66626583826181958184848B7C839E637996809061839D647794868B7369A8596EAB646C7AB9866A9B78A87A
:4038C000856EA4837D978A8C7D5A9E836EB87C5D62919C5B7D8677627B997063767D6D7F6971956B6E84787C796A7A786F6A797A738A6F7B7E5E738C8B5C4D91A151619234
:403900007D5A6E887A757A86697D917D8592907E92968E8F9EA49C99A6C09FA8B2A5B1B2B7A8AFC7C0A3B1AB9DABA5A780839D81757A6466715251495F50345C4C54624CA3
:40394000595046605446443F5754494A4B505D574E645B545252575E58475B5A586C663F688F717C6B9EA46E868C97A1918D9AB7A6A3B397B1D1ABA4B4ACB1B2A9B4BEBF1E
:40398000BFC5C7BFCEC5B6CDD0C8BEC6CCB9BDC3B9AFBCB69B96ACAA7E818D8788715D635F4F474041372F2F2D2A25251B1F282A1D18202A311E2D3B2E3E41394438425C2B
:4039C0004D47526E7D626277929B7475A3A6998D94B4C1B3A4A9CDC7B6AEA8BDC0B0A8ACBBC6AFA4BFCBC0BDB0C3D7C9C2B7CADBD0B7BBC5BCB3A3999E988E867582887114
:403A00005E61656D573B3D4C5C3229383742331A2C2D20261412211A1E1E082C3424271E42593A3E5B5E7D7C728B8D9AB1988CA8B2A8989EA3AAA6A090ADB5939298ABBE77
:403A4000A08CAAC3D1B6A9C6E7E0C3C5DBE6D7C8C3D4C6BAB7AAA5ABA1897F86908271637D8069636D78685B5F6B5D4B5152454E39212C372B121011190B070B0C1414107D
:403A80001825343C38485C6F6C6C768999A08C7FADAE99AAB2AAA8A6B5B1AAA8A2AEABAFABA0A6C6C2B0AFB6CFD1B6C5D8D2CCC2CED8D5C9BDBDC7C6B5B2ABACB6A7948AE4
:403AC00093A2918387898A7F787B796C61523D454D341B18282414070310130801070A050F252E221730535C4A4769838A726A9AB0987A87B7A98693B1B8A197ACB9A09AFE
:403B0000B1BBB3A5BCD7D2CBD4E0DCDCDCD9D9D9E5CDBCD2D8BFAEAFC2BC9C8F96B6A2888B98A39091919293937E69766F62443A3A2412031009000000090400000F0501E1
:403B40000D1205123D432A27627F5B516E8D9B83718E9A998E77899E98827FA4BBADA3A8C6D4BECCD9E5E5D7E1DFE4E5DBD1DBD6D2C6B9C6BCB3A0A1AEA8908FA5A3968C20
:403B80009FA39EA09AA0999488706D644C3228211A05040D0005020600000003110F120D24363B3538495C66565B7883584B6F917D50639496737EADBEA9AAB7D8E8DEDA7B
:403BC000DAEFF6E9C4CBEFEBC4B4C7D5C7A0AAB6BBB09EAAB4B8B0B5B9BDBCB8B9BDB2AFAE9C968776635447342317130D07040400070300110D141A191F2939514D385600
:403C00006D654A506B62584750656654576A778383959BB2C6CBC7CEF7F4DCDAF2EED0BFCED7C4BEB3B5B7B19B919B9FA6A9ACAFB7C4C5C1CAC6C1C7C3B5B2AB977B676217
:403C40005251472E1D1B1C0B0005150F121421302A252B393E2F334645464E4F3C3D5A6641335E6F5A556C7C918787ABB7BBC3D1D7DCE2D9D1D7E2CAB7BCBFBFACA1A4B1B6
:403C8000AEA2A29DAAA9A1A3BCC4BDBFB9C0C5C0AEA9B5AC938F8778585055463E332B1F2F241A0F0F251E110C302F1F1B343F1A152B4D3C304D5A50565647526F7E677300
:403CC0009BA99399AEBCC5C8CCD2D5D6D4C4D0D2C3BBB6BEBBB1AEBCC4B4ACBAC6C5AFAFCFD3C2BBBEC5C2B6ACABB1AFA3988884846D58554F463A2E31332B2620232D264D
:403D00001B17272B1A1722372E1321374233293D4D4535455A6468706D8AB9B09AA0E1E9C3C2D5EFE0C7C6D0CABAADACA7ABA699A2AFB9B4A6A8C0C6B3ADD4DBC0BFD0D641
:403D4000C5C1B4AAAAA48D7D7069634E4136443121333B2E23252B3B23191B2B331E221F3036261D2C41433D3B453E484953787F879AB4B6ADB3C9D9D0C6CADBD0C2B6BE15
:403D8000C6B9BAA8B0BEBAACA7C3CAB8AFC3C6C1B9C0CDCAC3C8CEB9BFBEBAB5A79D948A71685F51504B422D273B382716212820120715202D211E2C3835232A40361E34BE
:403DC00045362F55635D5479A58C92B0D8CAB9D7DFCFCAD9D2C5BAC7C5B8AEA6B7BBB0AEB7C1C0BBBBBABFC5CEC8BEC0C3C1B0B1B8AEB0AB99908C87635C5D4439333C326C
:403E000024293C28121A2D301811193736160311453B0D14365B50221C5378644263A1A19083AACDD0CDC3D4E2EAD4B2C8E9CCA3A3C0BCABABB1C0C4C7B6BDC2C0B3B2C8D6
:403E4000C0C3C1C3CEC5B9BDBFC2BAA79A999271625B554E4735282C3A29182A301E162D15051222220C0C253425190C31311F11367463446AADAA7B95CDCAC0B5CDD7D055
:403E8000CDBAB9BDBBA8ACA8ADB2B0B3B6C4C5BFB4C1D1C5AEB7CDCCBFB9C0CBCFBEAEB3B2AD9F97947E7B726A5756594A41363A36312020182D1803161821081C261B0BCF
:403EC000383717233043213E5F6D5A83B29F989DCDC8C6C3D1D9D3C5C0CDC5BEACAAB1ADA7A8B0BBBBBEB9C2BDBEBAB8BFC1C8B2C4C4C2B7AABAB9B2A29C9486786F645C90
:403F00004B4E555137333E3A3322322B2D22282F1D1B18272B1E1E2F2526201F0F11344D443A709BA67B8ECCE1CBB6D5F9F1CBCFE3E0C7C7BEBFADADA99AACB3B69EB6BF7E
:403F4000C4B5BAC9CDC9B7CED1CEC5C3C7BEA9AEA09B9289816C6B655C4F544149403F3D2F3A3034262826242729121325211D0E17221C000019372F27558E80738EA3BEC4
:403F8000B3C4D3DFD8CDD5D7CEC0C7BDB7ACACA4A4A2A9ADA7B3B6C5BEC0C1CFD0C5BEC2D4CABABCC6C1BCACAD9E9D957E7A76696260515A534E4C4D5054403335322E2163
:403FC000171D221A0E00202C2101103B2108023C432B3C748F767A9EC4BBBEC9D3D5DCCFBEBFC3C8AFA4A7B0A192A3ACB1AAA7B3B2AFB5B4B5BAB6B7BBC2C1B3C2C8C5B40C
:40400000A7B8B29F888D88706A675750605245434B4A38342C2F2B1B142A290E112C2A17192738301E2220191D2F3C415F80827F94B1BDBAC2D3DFDCD8DDD1D2D8CFC3B92B
:40404000BEB8B2ABACB6B1B3ABB4C0B0B2BBBEBBB8BBBFCCC5BBC3CAC3AFAFB0AA978982766A5D5145424541272E373521132D2D21101A2F29110F2934190F333B321924BB
:40408000291F2E4451507B8A81819EB1ADB5C8D8D2CDD2D5CCCAD4D3B8B3C2B4A5AAB9B8A8B2BDBCAEA2BCC9BA9FB0CEBEAEA9BEC7BDA9A6B0A799878885796B5857564651
:4040C0003D333A362C221E2A1C181318191C1E0A0D21241419262B27241A2136464C395D86917669ABC7AAA1CBE7D0C4CCDCDCC6C5C3C8BAADB0B7BAB0AFB3BEB5ADB7B71F
:40410000B1B7B4B1B2B2BEBAB3B2BCBEAEA4ACAD9D9188827976635B5F554542483E302D3831221A232319142327161A27241322271F15202726333E5153686F7F858AA84D
:40414000BBC4BCD0DDD7CDCDDCDCC9BAC0C5B5A6ABB6B4B0B1ACB6B8B1A6B4BEAFA6ADB8B2AFADBDB2ACABADA99CA299887E8075695A616052464751453B383F3329242968
:404180002B282A232B2A2928282E2F2C2F34343435333E4F575C6A898B8694B3B8AEBDD1DABFC3D0CFC0B7C4BAB0B2B7B2B0B3B6AEAEABADB2A7A9ADB5A8A7B0B1B2AFB1A8
:4041C000B0B5B3A8A7ADA3988E8D7A726F666158544A4239372E2A26282724281F221D232B2422212B342525353B2912203F4E383F7388686096B9AEA2BDDCDBC6CBDBDFC6
:40420000D8CFD3CDCBBFBAB7B7B6B1B0A5A3A5A89E9BA3A4A39C9EA5A7AAACAFB0AEACAAA7A0A29F9486807F6F605D5B4E43404232343D342B303826262D312D2D2F2B2A4A
:404240002D373436363339333436394245545A6578827E88A5ABAEB6D1D5D1CECDDDDBD7CCD1CCC1BEBBBBB6B5ABABAAA8A8A6A6A8A9A5A1A0A29C9CA19F9FA2A5A3A2A187
:404280009B9A978D89867E716E6A62595B5647494B463A3536362B262D2B2F2E32363A36343B3C3E3A3C3B3D3F3E3741575A646C757C7C8A95A2A8A8B4C4C3C2CAD6D6D07B
:4042C000DAD8CFC8C8CABFBDB9B7B6B0AEADABA7A7A7A6A09B99969492918E8C87868B8D8D8C8C87868380827F79736F6E686161645E58534C525245414442423E3B3E3C49
:404300003B3A3C3C403E3F44424746464A4C464953626F717676798599A0A3AEB5B9BDBFC0C8CED2CEC8CAC8C7C4C5C7C3BBB2B0B2ACA6ABA8A19A989894938F8D88888B7B
:4043400085848684858586858083817F7C7D7D7A7B74706C6C6A615B5B59514F4D4B4A4C433F433E3F3B3C3E3B3D3D45484445464D52514C48444251616667656371808871
:40438000919EA7ACB2B8BCC1D3DDD9D5D0D4D8D3D3D1CDCAC4BFB8B3B0ACACA5A29F98928F94908E8C87848081817C797D7F81807C7D7E7F7C7C7A7775716E69625B5E5E45
:4043C00058575250504D4A494B48454344454142454949494E4D4C4A505251504E4C4A47494F576B6C6C707C8B8B98A6ABB2BBBDC2C9D5DDD9DADCD9D2CECACDCDC1BAB536
:40440000B5AFADACA2A1A19B929190929090908A8682857F7C79777D7C7A7C807D7F7D7978797C7674726B6968656568605550514E45423E3C38393F363637373F43423E80
:404440004141464A474A504F52554947445D747676737A838F9AA2AFBEC6C9CBCBD4E0E8E2DEDFDDD9D5D9D8D5CCC0BEBBB9B7B7B1AAA5A49F9D9F9D9C9391908A858587F6
:40448000817D7B7A7776787C7C7978727371706D6566615E5E5B5551504D4B484744393435363732312E303537393A3E4649474A4C4E4C4E54545651514B525F7079707539
:4044C000818E9497A8B5BBBFC6CDD3D9E6EAE3E6E5E5E0D9DBD7D5CEC8C2B9B9B6B4B0AAABA296929397958C878686837C79777673706F706E6B6A6B6F6C656664606463E2
:404500005D5A58575455514A4847433F3F3E3C3B393B3E3D3E3B3940444A4C484A4D4F585B55595A615E5D5B58585063747C837F878E949BA0B3C2C6CCCCD3DAE2EBE8E85B
:40454000E6E4E6DFDCD8D0D0C9BFBCB6B2AAA5A09B9790908D8A86817D7C7C777574717273706C6D6C6C6F6F6A696A6A6B66676662605C5C595558564F4B484A4745403BD5
:404580003F3D3F413D4244454C505455545A5E65696B6B6D6B68686F767470676872818D8E9192A0A8A6B0BCC4CBCACDD8DBE6E8E5E1DEE1DAD9D5D1CCC0BBB6B3AEA69E10
:4045C00099989790878383817E7A7775747271716E727673767671727776706D7170696A68605F5F5C5852524F4845424140423E3837393A393B3C424243494D5052585A53
:40460000616464615F666A6B686466656363616D818886878D98A2ACB6BCC6CCD2D5D7E3E8EBE8E0E3E5E1DEDBD2C8C5BEB3AEAAAAA39B9793918D8986827F7C7676777485
:40464000706E6E6E706D6D72727273737272726F6B6C6C6B6A636163625F5D5A555050524F4D49444246444347454948434A505354525A5B5654585E5E64656465656166DB
:40468000655E63667C8B888588989EA3AFBCC2CACDCBD6DEE0E3E5E1E1E1DAD4D1D1C7BFBAB3B0B0ACA09B999592908F8F8B8682807E7A78767272736F6D6E6E6D6F6F6FB1
:4046C0006E6C6C6A696763625E5E5C585655514E4D4B4B4B49464441403D40414344414845474F5558555B5C5C5E6367656C6D6D717378787A746E686A7E8B9288869297D4
:404700009FA2AAB8C9C9C5CED4DCE5E7E3E5E5E2DEDADBD7D5CABEB8B4AEA8A6A19894928C8985827B74706F706C6C6A67615E5F63676769676B6C696A6D6D6B6966636372
:404740005F5D5C59554F4D4A494844403D3C383838393B3B3C3F464A50505257565A5D5F5E616A6F6B696D6F757372777775716C707D868E8A8B979BA4A6ABBBC5CACDD3DF
:40478000D9DFE3E4E6E6E7E4DEDAD9D8D2CBBFBCBAB0AAA6A19A938F8A837F7F7A7373706D6B6766616264656461616264606061615F605E595A565758524E51534C4645E1
:4047C0004441423E3A404040434648494D4D4E575A585A5E616367686E717175787B7A7D80807E7C7E83847F7E7E8181848B909695999BA1ABAEB7C1C5C6C9D2D7D9DCDCBB
:40480000DCDCDCD9D4D2CECCC8C3BAB7B3A9A19D9A938E89827D7C766F6B6C68636462605F605F606463666866686B6C6C6B67636361605D58554E4B4A4541433F393A37AD
:4048400039393B3F403F3E4246494A4E52555B5E60676E6F7171787D7E7E7B7E818484838685848686827F7C8084878D969B9A9DA2A7ABB7BBC0C7CBD0D2D9DBDBDDE1E02B
:40488000DBDAD4D3D0CAC3BEB6AEACA69E99968B807C78766F6A6A635D5D5B585658575B5C5959585C5C5B5D5D5D5B5B5C5A5B5B585854514D474646413E40403F3C3C3DFC
:4048C0003D3E3F4244454A5256585C5E63676B70757B808184888A8A8D8F919492939292939494979896989492929090939697979BA0A3A6A5AAB4B6B5B7C0C5C4C5C6C863
:40490000CDCDCBCCCBC8C5C2BEB9B6AFA7A19C968F8B85807D78706764635D58565556555455525353545857585A5B5A58575656565353524F4E4B494544413D3F3F3E3D34
:404940003E404345464B4E54555863666A7273777C8083858A90929395989B9C9E9C9CA2A19D9C9BA0A19E9E9EA2A59D9DA0A0A39F999798989493979A9A9A9C9D9B9A991D
:404980009FA4A3A3A5A8ABABAAABAAAAACAAAAAAA7A29C9896938D8887837D76737069625E5B5754525052524D4C4B4C514F4E505153535354545657595C5D5F6062606068
:4049C0006464656764636465686664676B6B6A6E707174777774787E7D7F81818688888B878C908F9190959A969698969A9A959A98979891939290908D8B8B898886828563
:404A00008583807E807F7F7B797C7F80807F81848688888C8C8D918E908F90939191928F8C8988878180817E7C7C7B7978797874747270716E6D6C686666696766696C6DF9
:404A40006D6D6C6F7273737377787779787979747372706F6F6F71706D706F6D6E6B6B6C6C6C6D6E71706E70747677787C82848385878988888A8C8C8C8B8C8E92918F9003
:404A80009090908F8C8E8F8D8A898B8A8A8A89898B8C88878685848486858682818382817F7D7F80807D7F848585878886878686878685868688878789868988878584834C
:404AC0007E807F7E7E7C7B797572727370706B696D6F737273736F6B6B74787A7B787B7875737272767977777779797772716E6B6C6C6E727374777574716B6C696B6F6ED8
:404B00006F70727375747575767978797D7D7F7D7F838487838382878A898B898A8A8B8B8A8B8B8C8B8B8C8C8E8D8B8A8A8B898B8F8E8D8B8A8B8B8A8988898B8C8B8B8A38
:404B40008A8A898684858685868685848484838383838280808081807F7F7E807F7C7B7C7D7A77757475767672727374747271706E6E6D6C6C6D6D6E6E6D6E6E6E6E6C6EC4
:404B80006E70706F706F70717171737373747578797A7A7A7B7B7C7E7D7D7F807F7F8282838281818385858484888887878787878A8A8A8B8A8C8B8A888989878787888828
:404BC00086858585858586848484838385837F80828082828182807E7B7B7C7C7C7C7C7C7D7C7B7C7D7C7B7A7B7B7B7A7A7A7A7C7A7979797978787779787777787876775E
:404C000077777674737474747677767674757676787878797979787878767778797A7A797A7B797A7B7C7D7C7D7D7E7F7F7D80807F7F80817F7F7F818283858586858585AD
:404C400085858486868587868585838383848584848485848585858582818081818081818181828182818181807F7F807F7F7D7F8180807E80807D7D7D7D7E7D7D7E7E7ED5
:404C80007D7D7D7C7978797978787977797D7E7C7B7D7E7E7C7D7E7E7E7D7C7B7C7C7A7B7B7B7B7C7D7C7B7C7C7B7D7C7B7B7C7B7A7C7B7C7C7A7B7A7A79797A7A797B7C24
:404CC00079787A7B7C7C7D7C7E807D81837F7F7E7E7E7F7E7D7E7E7E80807E7F807F7E7F8181838281807F8082807E808081827F7E7F7F7F7D7F8180807E7D818181817BFE
:404D00007B7D7D807D7B7B7A7C7C7E7F83817A7C828584827D7F8686817E8386877E787F8183817C7B7E7A7B81838A8D908E8D9DA1A4A49DB5BCAFAAB8D3CAB8A09AAEA84A
:404D4000968481735E5A535E605443313230414B434B46413C43555152493C3D342C2C322913020000000201172317151F4161859695A9AEADB2D4F6F9EABBAFBABDBAAED6
:404D8000B18C6F6A63818D8A7F768B8FB8C4C4D4D1D9D5EEF2E0DCBCBEC3C3B095987E7B74696B5F65515B6C6674707378858F88959A8E867F7F8077665F625955565E5BBD
:404DC0005057565F636566697C7E8B86747D959E9392838FAEAEA49998909BA5949B9E9B97959BA0B3B19C96A7AFA6A59A93A1A38B889C9C978C6875867062656A5F595860
:404E000062776C5A494B5C5F554A4431313D4F7580756E849FB5CFC5C1C2C9CFCED3C5B7A3A0A29B92746E6C6C68636B6977797B8F9DA0908A989E8C6D70736356474F4DCD
:404E40004131385251595857668592848887807F8584807A6C70777074827D686878808B86828A97A2A8AB9A989AA19D9B907471758486866F678690A29077749DB38E8C92
:404E800089999A8C85868762636A7D7F6762687D6F7971636956565F71583E31243633252233373B4B5E7B95A0959FBED3CABBB8B1AEAA927874655D5E6258525C5D6B6CC0
:404EC0006F80909091ACBCB5A4A7B0B9A17A78745B3D3F33343025232F3A415764757575768E937C7C6E72676D654D504E594C535B62707A81787E849FA49F958B8F888BEF
:404F0000797B77645C5B727872606C82768099A28E88A0ADAB827194986C4A545F655739446F6B4F687A7E6B5E5450798BA7866375A3D3C0C2B0B9CACDC5ACB49DA79FA39F
:404F40008C7B827D968C886F83A3AEAA848E93AEAC9D9F92938A93918382898D8F7B676A6B6D594B425268574E5554506169655451536270544C4253615B524A59536C825A
:404F8000867F889B97A1908D949C9C8B9392948A86918F807F8F888C8889858BA48B7A81A6B38E888884857689855E4E4D7F654044416E3A2A658E9A5D99D8DAD8B1DDF6BE
:404FC000F9E0BDD6D3C6A590918372656F7C7469768E999EA2AFCAD6C8B9C9C3ACACB7B3A0897C8B8A79676B7176705E696E756A666D656C6662634F5249574F465C4A59B5
:405000004857635E6254616B887468728E917C726E7A7B89757589A08E8F958C9192A9969FA5969CA6AA8685928D857A7D85866A6D6E7D7E4D565E7E5A33303256719B6A1B
:405040005D84C9D9DAC6A7DCE9FEC7B5AAB2CBBC995D766D87765F5B63886B8C8A919BA0BDA8A29797A2BAAC8B81849E897B6D6B786A6348575E62695549485A4B4C3E48CB
:405080003733483B403F4E3D3D5657554A4952626458587482697175707F828370818B867B80A19F9482889AA98C7A8D9E9C747994877E828078756B5D6F675745485C5890
:4050C000480E3F8AA34F40A4C5D8B7A9C5FCF1D3CFD5DCD1D6B099878A7E7B6B47655F6F716C6F85999DA69CB7BDAFB0A7A9AF9D9E8F968574786A5C4C513F433E3D5149F4
:4051000052524950545149424856514541464944383E4635302E4C5D5A6161747D9199929092A1A4999798949FAD9B8498A59F8482968B8A898694897D908C8A958A706EF2
:4051400070736A57421E27376374350D7DD8B29E8EAAEDFCCBC3C5D5E7E2B48CA3A2947E6E4E6673715E455D6D9081838CA6B1AFC1B3A9ACC3B59F959C968D6B5254564AE8
:40518000222928443D2F31304D473E334952484C504C5C583E40484D3D4845485A68695E7F8E7F88909EA797A4ADBAA7A6B0A3A39EA5838D877C8C7C7678847E787F8C8812
:4051C0007B667D8A7D5760757466226DB6823F63BFC2ABA09FC0E4D2CBC2D1DBD7CDA692A9AB8079666F76585F675C63777765708D9E9991A8ADB7ADAEACA8A6A8A9837AA9
:405200006E7E623A3C474B3634232A2E212E342C2D35464C4835506758613C535D7F8549657D8A7572607BA497837B9D9A9D9188939FA59691949FAF93838C9793797E6F04
:40524000717B65655A5059543633346F9146567FBECB9BB3C3F6F0CDDEE3E1F1E7B2ACABB7A67479756C7F6C535B607C8573657B979F938FB0AAAEB29FAAB6AFA093848129
:405280007F6A544D4A473F373024343D32232B343A353341464F475049626763544660757E43557D8B8261818C9E96889194ABB89B84A7B2A7A29A9FA7A0A19C97999592CA
:4052C000859595867D7578655C533F546F59576C798A9AA595B3CBC5D3D1DFEADDD5DBD3BDACA59D8077846A565C606153606260686D7E849194A7B0A2B0C5C7AFA1A9A7AD
:405300009376666952443B3731232E1E1A1E1E1C272A24373D3F3F5451505E60625D6473857478887C858A8A92918A93A198939FA1AB9D8FADB8A38D97A6AD9F8993959734
:405340008185977E7167674D4B616B5B5A7884938CA3B4C2C9DBDCD1E8EAEED7D3CECEBCA59E95948576656E5D6259645F5B656B787D988C99A7BEB8B3BDBCBCA09A8F8D26
:40538000776E664F4D432F1E1E1809020901041C18192F35484648575E6B69787686A48C7C8C909F93858D929A96928F9B8D9AA3918691A19CA9989E9BA4A38F8D84877E04
:4053C00078564B607A5E3F5C7D99887797B4C0C5B7D5D7DCEADFDFCFDCD3C0A6AFA6988D79726C6F69565062616467607494958B8DA1BBB7A39EABB7A78B878883786A5A69
:405400004D433424201F1A1408050E120E162127293F534450605D6D737681848984949395A09298948FA0A0868899A494888F919AA1968092939487817C6F75707B787253
:405440006790A58F859CC4C4BBBCD6D9D8D6D8D5CDCACCBAABACA6A0938A7D7B6F6767695D5D6562686F7E828A8296A09E9E9DA99BA0978B817D7867544F463B2B1A1D1D69
:405480001404070A1510100E162629292A4648504D626D7876768D748494938D8C97A19F9A9299A8A39D8E9C9CA89B878D8C90796D7079837D6B757D96A3A099A1C7D5D23B
:4054C000CFCDD2E9EDDDCECFD6DAC5AAA9ADA5978575767E7A61585E6A6A625D647887897D8995A3A194979E9E938A7A6F6E67544236332A282008040E1304020315191633
:4055000017223635393950625B616F7C80847E7E999D919498A5ADA0979EADA39A9393A19A8D8187877C717A8C807E819A9D9FA2AFD1C6CBD2D7EAF2E9E0E2E9DFE3D5B719
:40554000B8B1ACA19573797E7067575C63715A5462757D72727E8F908781918B84807E766A5B5B54454535331E22150810090803060309151C1A26232F3F58574E5E648639
:40558000807B75889B998C98A39D9598A396988F959394837A7E7D7D8A89708A96A69FA0A5C1DBCCD4DDE7E6FAF4EFECEBF4F0E0CECACAC6ADAA98978F857E6B6E6F736AAD
:4055C0006360747A7B717B8789958A94918C8990857A6F69665D5E473D32362B161212110F0D0914181B1D252D383E44404F6E6B6871777E8D868489918D8D9291958C8CDA
:40560000939B968C91949591898E95A09C95A4A7AAACADB3BCC0B9B8BEC9C7BCB9BABCB4ACA9A5A39E9B97989A938D8F8E8A8C88898888857F8484817D7D7C797972706F1E
:405640007273656970696664606160595C5A5D56555A534F4E50515150545253525657585A575E5A5D605E616162676B6C6A6C6E70736F70737A76797D7F848388898D94C3
:40568000979398A4AAA7ABB1B5B6B5BBBCBABBBDB8BCB8B5B5B1B5B3B4AEAEACADAAA5A3A0A49F9D999592938B89867E7C797973726A676664605B5B5A5755524F4F4F537D
:4056C0004A4A4D4A4C4E4C4C4E4C4B4A4D4D504C504E52545357575D595A5E5E5E6464666A6E727175777A7C8284868685878B918C8B9096979A9A9CA4A3A3A5A6A9ABAA9D
:40570000ADB1B1B7B6B6BCB9B9BAB6B4AFAEAFADABA8A8A8A6A19D9F989594918D898B86817F817C777573736C69696A68635E605E5A5A585856545455595955545257571D
:4057400054555152535855515556595B5B5C5E61615E5C5F605E5F6263656A6C71767675787E7F818383868B8B8C8C908F8D9092979494979A9B9E9E9B9EA3A4A7AAA6ACE6
:40578000ADAEB2AEB0B2B2B2B3B2ADAAADA7A4A3A1A09C9B979A97908D8F8C878886827A7C7977767372706A6A656065615F57585C575457545555535E6166605F62656AA0
:4057C000646E6B6B6C69858C787E9192817F888A9077728081888E927D7579777A716869635D6768655D5E5C5963483E4135393E4C504E514B5B7B827D7E899BABB2AEB539
:40580000BEC5C8CBDBD9D3CBBAC4D3BCAAA4A6B2AB9A8E93918B82858A7E7F777E86817E79848D8883888A8A89837D7D80776F676C6961544A48473B3432232416141F1B10
:4058400018141D1E2C312930313744474E4D515B65777273818F8981898C8E8C83859191847F8C8881796E717F8A736E7B9EA9A4ABB8DCE1E3E8F9FEFFFFFBFFFFFFFFFF87
:40588000FCF9EDE0D5D2CBB6ACA9B0A1A2979AA1A09E97A29BAAAEABACA8B4B3AC998E8E897A6D5F5246413A241B14191909030D1A14101B2D39343B4557665C5D62737500
:4058C00072726F74746C626D6E6D6B5E646B5B4E61797564707A9AA8A5B4C4DED7E8F4F8F7F3FCFCFFE9E4E6DDC8BCB1ACA497928B88887E797F7B7F807D818687888E9036
:405900008F959793959182747268593D383A231F100B030002000003040708051D22232129353F473B4138424B574D37454F5F4F4147676E5A6070797A7770807B76809DEA
:40594000997B89A0BBBAA8A1C0D4C8C9C9C9CEDDDAC8CCD1CBD0BCB4ADADADA39A8E93898E8C8784848A8383868B8685838F948A84858680716567584E4B4A3726252224BE
:405980001A120810161212191A191A1B2F34333242525552626B626D74867B757E8B9B8479809C9A858095A68F7F7F8D7F7896A08788B1CDCFBFB5CEF6EBE1E8FCFFFFFD42
:4059C000F3ECF5EED8D3D0C7BDBBA9938F948E837B7A87918C848D8F9B9A969FA1A5A4A59B989B947F726E6B5C4940312A1C1A100C1407060F13141B1C222D39414855597E
:405A0000637577767E78878E868E7A7C99908082949882828FA2916E838F8277829F9B99ABBDCBC7C3EBF1DFE2F5F9F1EAE6EEEEE5D1CFC3B3B4B1A18D86859182827F8A85
:405A400096888E8F9A9898919DA1A09F9AA19B938681716E605A4D423D3634272C161D1F1E1D1A252E2F2F353842444E495963675D5C7B7F6F6B827884867970808D8B7FEB
:405A80007282868967657692927E859DBEC3BAB6D4E2F2E6E5E8F8F7EEE7D3D9DBD0BEB2ACAAA09984868A8B867F817D908B8E89909796A29D9B93979A9388827E7866557A
:405AC00056503C342E261D2023110E0F141F1E141A24353A3437454F4E5C525B5E6D7163615D7D6E4F5A6E78786263697672595E628A9F8D7699C9D0B29CCEF3E7D1D0E4EF
:405B0000FEF8ECD6CDCFDED2B0A095B3A88D7F7B899281737B859792857C8CA4AA96899AB1A6958C838E8A745A564548342321141D1D16000B0B171406121F242A392E3BC6
:405B4000494B495A5A5D5E58757A6F5F68748A84696A7781857351607BAA94687BACCCB6A9ADD6F5EBD4D1E9F5F1D1C2CAD4D5B9A297A4A289807E898C837A84939B898684
:405B80008C8E9F969891989D96918380878D72605D665C463C3335392E1A1B232F24181A2A342A2521343F4B372E4B5155534D415F746D523668917A51658592886D6A6E43
:405BC00088A3977C8EBED7C2AAAECBECD6C2C9DAECE0D5BBBED6CBB2A3A7AEBBAE8E93AAAD938B979E9A8A8C9B8E8A8F93947F8896968A86888F8C7568766C55543F443C79
:405C00003D3422212933221C13272F302927323C453933374D4D56474154646C5C585674806763707D80676A8E9481849DAFBAB0B1CCDAD1DAD9DCD9D7DFD7D2C6D7D2C535
:405C4000B3C1B5B2B1AAA3A2B4ABA491979DA1968A8991928989818C8D867E847B75675F625E5D48413A403C3122282E2B2E28252731262D3137372B303F53433345526B30
:405C80005C3951657D5D4657747D6F634D71949B6966A1C4C5AAABD9FEE5D9E2F7F3F2EAD9D7DFE4D1BBAFC3BDAE8B97A7AB908A9DACA791959DAA9A9E96A1A69EA0989B9A
:405CC000989E927A71776F6C534341474130241B2C2B26131D252F25202B2C3C2E33263F4F4D483C55636A58464C667E6B495A708B704456869E746687B9CDB9A7CAE7EE05
:405D0000E6D8E2F2FFEDE2D0E2E8D8C2ABBDBFB59D929AA89B8E85959C938A8396A79B9399A0A99B9E999EA39E9083847F7D69584F554A332D312E2A2B23221B2224261CC7
:405D4000212C252B28344241383F55584D4753706A5A5F72796B616679746C71838C86898DA6B4B3B3C2DEE2DBE1EBF3FAEEDFE2EDE0C8C7C8C3BAB3AA9D9E9C988D898FE0
:405D80008F88878D9295909399989B99939A9B918B8B877F71686A615648413D3A29212822191920191D232227252D373A37394D554B4D5C5C5B676767616C77786F626D63
:405DC000726E687C8C7D7D98AEAEA0ABD0D5CCD1E3E4ECECEFE8E0EADADBCFC2C8CCAEA2A8A59987938D8D82838E8F86878E93968E949094989390948A8881766C69644D4A
:405E000046403D39311D23211A171B1E101B2931262C3242473D444A5757575B676168725F596E7973625C7378807F7D8499ACB1A7A7D3E7DBCECDEAFFE8D4D6F2ECD7D3D9
:405E4000D2D6D0CEB7ACAFB6A88F989D9D9A8D8A98968F8789979891858F99928A8A848079746E665C5451453A38362C241D27281F16142C2A1C1C2A373C332E424E5952FB
:405E800045576F7062606E7C7C6A5B7483765C629AA0776FA0C4C4B1A7C5E3E0C7CDDAEEF2DAD4DCEBE3CEC0C2C5BEAEA1A5A8A292919894908A899391898693918B969571
:405EC0009A8F87928A79707673604D4F5341312C2D2E251B15171A1C16141E2520232F36383A494D57514D646E655E7381796C7176807B6D6F7A8E898587A1B2AFADB4C616
:405F0000D4D7CDD3E2EDE7DCD8E1E5DFCEC2CCCCC5B2AAAAADA39593989990908D8B8B888B938D8B888F9288858C8B787C767461595A5544383536301D23131421170B0D08
:405F4000171C1B1C27212E3D454A3D3A536D6A585C7984776F757D807A787577899A878293A4B7A8A4BAD4D4C5CEE6F3E7DAE3F1E6DDD1D4D9CCC3BDBCB7B0A39E9F9D9463
:405F80008F8E888E8D8387898888828486878581807E7D756F6D5E595547423C352A2125261710151610111C17161E2C3837313C4A4A565C565662776E6B757B8A7A6F799B
:405FC000818585827F919CA3A0A5BBBECBC4C9DDDFE1DEE6EBEBE6E0E2E2E0D1CDC9C8C3B4ACA9AA9F979897908C8C8985858A837A84817D857F7D7B73716963605A584D35
:40600000404140322828281F1516171B17171C1A25283031364646494E5D6363676B7679767177807A776F7480838C85808AA1AA9C9EB3D0C7C2CFDAEFE9DDDAEBF0E4DDF5
:40604000D7DDDFD6C2BABDC0A992989C998981878D817A7C7E7D7E837D80818C8A7C7F82887D6A6171684C4545483E2F2321231F12051518190F05243D2C1E3A5C494759BF
:406080006371696E7A7B7E8A807987868C8177818F8F7E8698A39996AABCC2BDBFC6D4DCD8D9DCE3E7DED9D8DADECFC6C2C0BEAEA6A49E9E9C938A87918778807F7F7973A6
:4060C0007A7A7D797477756F6C6A645E5454534A463B37322C2C221C1C211D15121F2C221F2F3B3B38424F575A59626A6F7675757B88897F80858E95908A96A6A9A4AAB931
:40610000C0C1C5C8CAD9DDD8DADFE7DEDCDCDBDDD5CAC4C7BDB6AAA7ABA8A09093958C8480817E7F7A7D7F767B77787B6E6B6668655952535146413A383230292526232026
:406140001B1F26271D232B2D3136393B454E4E48596865626674807571828C877A879EA2978C94AFBBAAA9B9D0D1C4C7D3E0E2D8D8E1E3E6D7D1DBDAD7C3BFC5BFB4A4A7DD
:40618000A69D99908C8D8B837D79817B7375737A75716F6E6F6B695E5B5E574D4747493C39342E332D251D242526231B2C2F2C2B313C3B404849515867635969747E707392
:4061C00085827F79828D8C8F8F93A9ACA3AAB5C2C2C2C9CBD5DAD7D9DBDED8D5DBD3D5CEC1C5C2B7B0AEA5A49F9996928D898480857E777A7B7975777B7A7671726F6A648E
:40620000615E54574F4543403832342C2B24262224291D23282E292D35323A434F4A475E69625A5B83816F757E9885727F8B9B927E8CABAF9F9DACCBCFB9BECEE4E1CBD2E8
:40624000E3ECE4D1CCDEDBD0C6BEC8C4B9A8A0A8A89586898E8F8177787E7F6D6B787B726B6E78796B6B6872735F55556157413F484439312C2E323124222A2D2A282C2E4F
:406280003537323A47484B3F4E665A616479806D798A888F87869B969A9A9AACB1B4B1AFC3D4C9C5D1DBE0DAD4DCE1E0DBD3D4DAD4C8C3C1C5BCAEA6A7A89B968F8E8B891F
:4062C0007C768179726768716E67676B6A6B645F6667655D555958504748443F3D33332F302A25302C23282D323933404542524E515A5C6367656F7C82747D88848B82896A
:406300008B838991908E9499A59FA6B2B1BCBEB8C5CFCED6D2DDE6DAD9DBD8DAD6CECCC6C5B8ADABA5A79B8C898984777675717069676B6A676A67696D68656A6A65605E90
:406340006562595252524D453A3C3837322A2A2F312B292C363A3D3B3B404E55495155656B61657A7E7B7F7B9193848B8D9593868C9E9C8F8C95A8A89DA1AFC3B9B1C1CB58
:40638000D5D3CAD4E3DFD8D4DAE2DAD1CBCACAC5B5ADADA99C8C8C89807778716B6E6866606062635E616464655F68666262615E5E5C53544D4A47423F3B3A372E2D3331D6
:4063C000323331363D3E383B46525249545F6963617374747C8582868D8E908D979A94989C979BA09D9E9AA0AAA5A5ABB3B9B6B5B8C1C6C1C1D1D0C4CCD0D1D0CAC7C8C200
:40640000C1B9AAACA8A19B938D88817E77706E6A6360615B5C5B575E63646461646A6761656B69605C615F5E55505349484343413737383A35363B3E4140484C5454555F9D
:4064400061656A6D6E747C7F7A7D898A8B878C93918A8790928E8A8A92988E8F9BA1A29DA5AFB0B3B7B6BEC4C2C6CBCACDD1CFCFCECCC6C1BEB7B3ACA89F97958E85847DC4
:4064800077736E706A64646560615F5D626062636164676662616564625C595C59514D4E4F484546443E3F43403F3F47484B4F5057595D646C696B7176737A80777D828348
:4064C0007F8082838587887F858B8A87878F918B90908D989A979599AAA89CA2ABB6B1ACB4BDC3BFBBBECBC6C3BFBDC4BDB9B1ADB1AEA29D989D9A8B8681868371687276A3
:406500006C6261696C6860606868635E5D68685E5E61625E565B5C5D594C4E544F43454C4D4740424B4B41464B4D4F5554555B63675F666E74726D757F7F787A8388838288
:40654000888C8E8F868C95928D9097999D94919BA6A0949BA2A6A29596A4A499969CA0A19C9A9EA3A49E9C9EA3A6A19FA4A5A8A79FA4ABA59E9B9EA1948F95928B898685A1
:40658000807E7E7375736D6C6D6F6A67696F6B67696B6A676868696A666464666564625B5E5A5654505051504A4C4D4F4D4B4B4E5454535A5F5B6261666E6E6F7179777513
:4065C0007A7F7F7E7F858D8982858E908C878B9597918C95A19E9491A0ABA2918DA5AB9E9199ADA4959198A3988E8E9499908A878D928D837F8D8C88807F8B8A8681848CB5
:406600008C878180888D867C818C8A7F7C838A877C7A7E847F79797A7C7C79717375756F6A6E716F676A6E6D686868696A686666696A6563686A6A66676B6E6E6A676C703D
:406640006E6A696F6F6D6D6D6F7071727270767976787A7E80828084888889888D8F8E8D908F8E9395938D929895908F9091938F8D8E8F8F8C8C8D8C89898E8E89898A8D06
:406680008B84858C8A8182868680808181817A7C7E7C7A797A7D7A777778797775787A767677777775767A75737677777777777879767B7B78797A7D7A7B7E7E7B7C817DFB
:4066C0007D80817F7D7F8181807E8182808080808081807E7F8282807E7F82807F8082817F808280808080807F807C787B7F7D7A7B7B7E7E7D7C7D7F7E7F7E7E7E7F807DDC
:406700007F7E7F807E7F80807E7E80807F7E7F7F7F7F7F807F7F8081817F808281818181828382818383818181828282818182818081828081808081807E80807F817F7F4A
:4067400080808181807F808281808082817F8081817F7E7F7F7F7E7D7E7D7C7D7D7C7D7D7D7E7D7E7F7F7E7F80807F8081807F7F807F7F7E7D7E7E7E7D7D7D7D7D7D7D7C6C
:406780007D7D7D7E7E7E7F7F7F7F80818280818282828181828280808081817F7F80807F7E7E7F7F7F7F7F7F80807F8081818180818283818081828180807F807F7F7F7FDF
:4067C000807F7F8080808180818181807F8080807F7F808080807F7F7F807F807F7E7F7F807F7F7E7F807F7E7F8180807F7F807F7F7E7F7F7D7E7F7E7D7D7D7D7D7D7C7DD4
:406800007D7D7C7D7E7D7D7E7E7E7E7F7F7E7F7F7F7F7F7F7F7F7F7F7F7E7E7E7F7F7E7E7E7E7E7F7F7F7E7F8080807F808180808081818180818280808181818080808093
:40684000807F808180000000000000000000000000000000000000000000000000000000000000000000000000000000000000000000000000000000000000000000000098
:4068800000000000000000000000000000000000000000000000000000000000000000000000000000000000000000000000000000000000000000000000000000000000D8
:4068C0000000000000000000000000000000000000000000000000000000000000000000000000000000000000000000000000000000000000000000000000000000000098
:406900000000000000000000000000000000000000000000000000000000000000000000000000000000000000000000000000000000000000000000000000000000000057
:406940000000000000000000000000000000000000000000000000000000000000000000000000000000000000000000000000000000000000000000000000000000000017
:407440000000000000000000000000000000000000000000000000000000000000000000000000000000000000000000000000000000000000366E01C05D00001800000032
:407480000000E02E000000000000000000000000000000000000000000000000000000000000000000000000000000000000000000000000000000000000000000000000BE
:4074C000000000000000000000000000000000000000000000000000000000000000000000000000000000000000000000000000000000000000000000000000000000008C
:40750000000000000000000000000000000000000000000000000000000000000000000000000000000000000000000000000000000000000000000000000000000000004B
:40754000000000000000000000000000000000000000000000000000000000000000000000000000000000000000000000000000000000000000000000000000000000000B
:4075800000000000000000000000000000000000000000000000000000000000000000000000000000000000000000000000000000000000000000000000000000000000CB
:020000040003F7
:0200000480007A
:40000000015200400240014001410140014201400143014003480140015101400C403280CC10A680A680A6802680A680C820000300000000000080004000004000000000FC
:4000400000000000007F7F00000000000000000000000000000000000000000000000000000000000000000000000000000000000000000000000000000000000000000082
:400080000000000000000000000000000000000000000000000000000000000000000000000000000000000000000000000000000000000000000000000000000000000040
:4000C0000000000000000000000000000000000000000000000000000000000000000000000000000000000000000000000000000000000000000000000000000000000000
:4001000000000000000000000000000000000000000000000000000000000000000000000000000000000000000000000000000000000000000000000000000000000000BF
:40014000000000000000000000000000000000000000000000000000000000000000000000000000000000000000000000000000000000000000000000000000000000007F
:0200000490006A
:0400000000004005B7
:0200000490105A
:04000000BC90ACAF55
:0200000490303A
:0200000039FBCA
:0200000490402A
:4000000000000000000000000000000000000000000000000000000000000000000000000000000000000000000000000000000000000000000000000000000000000000C0
:400040000000000000000000000000000000000000000000000000000000000000000000000000000000000000000000000000000000000000000000000000000000000080
:400080000000000000000000000000000000000000000000000000000000000000000000000000000000000000000000000000000000000000000000000000000000000040
:4000C0000000000000000000000000000000000000000000000000000000000000000000000000000000000000000000000000000000000000000000000000000000000000
:0200000490501A
:0C00000000012E12306900012E446A64D9
:00000001FF