:10000000022A34008F828E83E0540100000070F8D1
:100010002278FFE4F6D8FD022A927F40000152497F
:1000200046467155000057415645666D74201000D4
:10003000000001000100F82A0000F82A0000010079
:100040000800646174614D5500008080808080806C
:1000500080808080808080808080808080808080A0
:100060008080808080808080808080808080808090
:10007000808080808080808076777C82837E7F7F96
:1000800087888B888083828583897F7C8187938B17
:1000900081838E8E9581777B7F87777A757A83923D
:1000A0009884878F99938B8178737B85796C687638
:1000B0007A837961657D847868607F827E807672DC
:1000C0006D7B797E7A69797C7F8582878587807C64
:1000D000858077777D818875697A81817A77727E6C
:1000E000858E9F907F9099968F8482788681837485
:1000F00062706E7F6E6977867E7B7F75867B948F5C
:100100007156709D99844C6588A48D6B7085A3A9E8
:10011000AE605784BCBA74647B8F7E8875635B6DF8
:100120008089716680758A756E7887919B906B7CEB
:100130008EB89B868089A5A9B4989591AFBFA38EF0
:100140009CB3B5B08B737B989BA27569889B9775A0
:100150007F7B959A8B8995937C9389745D606668A3
:10016000512B3C473C354129425C7082503A3C71EE
:100170007A65443148607F55443657816B66586BC9
:1001800083A09A7A6C8EBABE975F7696B0A380559C
:10019000609AADAB645B94CABD767FA5C0C78E7D07
:1001A0009696A2898C868991777F726775A39E76D1
:1001B0005E72B0C9907E8AA4C0ABAA7C989D8E99CD
:1001C0006A7186938C7E7A7A85977A6C72849D8C1C
:1001D000775E8C91887E606F68645A526F6B667A26
:1001E0006C755F6584786A4650656C4B25334D535A
:1001F0003D29384F6853333F3D7780655C72A7AA2D
:1002000098766475A19F9E777BBFD1CD9999AEDC1E
:10021000E1BCA9A8B6B1BA9EA0A4ADB8B7A5ACBFC1
:10022000ACA790988C91A99F8C657FA2967A687FE5
:100230009598757AA39888788D977A6A6B8D907166
:100240007F7F6E82A394482E6A9A7E5C445F878E7D
:100250007642647970645750455463685A43347DDC
:100260009D6E294291826B4A534A63817663536F34
:10027000706E43282C5067442F4A719CB1A28B8228
:10028000CEEDD08CA3FFF6A37F9AA4AB959B919F54
:10029000A1B4B8B2BFA8B9BCD1B79C89A6CFBC9F46
:1002A00098C3C0D5C2C9DDCDC4B7CDB8BBB3A7B064
:1002B000AA988BA7938581746E4845425750354E56
:1002C0005560565B6B5D4A4A51281829493A2A10F5
:1002D0001C4B271C2A4D4125364E5426317364127F
:1002E00016475A4A3845788954457886437CC3D89E
:1002F0009C68C6EFD97A96D2E1B16099CBB585AC4E
:10030000CCC1B9BAF2FFF7DCEAFFF6F1D4CCB9B24E
:10031000C1C3A898ADB09D98BAAD9BAEBBC8A7A00D
:10032000978DA2817A5A485C2F181A1A190C0D0160
:100330001916031134480F05043A3412191C190810
:1003400004322407053D6C6C40244588A88B8098B6
:10035000BEACBCB0999B9FADA5AA81677A7DA0A7D2
:100360008FA1DAFDFDEFEDFBFDF9FBEAE7DBD8C37A
:10037000A2A19D978D8A868AB0BAB0B3C1C3BDC60B
:10038000B9AC9B94A1795C5C45443719221A080BDF
:100390001B2B0F1327302A1A2641351D1F2B30190E
:1003A0001F1D0012372E2F3044614B48617D819212
:1003B000856D828D97A3A48F95B1B49BA9BBB3A97A
:1003C000C2EAE5E1CBCCEFF5DFE3DAE3EEE5D7C156
:1003D000C7D0B5A3ADA6B1BFBCA3A4AFB8BAA2980D
:1003E000968D82968561495D6F43191A1515290C02
:1003F00000000C1B1C01052512012A4A1C08447729
:100400004F42605E51728B6B5777A39987766E77F8
:10041000B5BC857B8190A2AF9DA7ACD2E9DBDBECBC
:10042000F4E8FBE3D9DFE4C8BFAE9EABA39D808CAC
:100430008D9DA8B0B0B0B1B2C4BFB8A7AAA1B39205
:100440006F5F463D2F1F0906000B08000A080302D4
:100450001D2E3F393B5D6937386F58425050365A30
:10046000855B1E2475866B4F5677919B8C8085BA71
:10047000C6C7BDAAC0DEDFC8C9C3D7D3D6C4ACAC1B
:10048000C0D9B0A99BAACCD09B84A5B8C5B4C8C01C
:10049000BCBEC9CBBBB2A6ACA09B715B4F4E3D129C
:1004A00004000C0C15010C020B18030015403E480B
:1004B0003D4023377D7443183972843D23356A8962
:1004C0006652496B89B59F868BC8F6EBE0C1DFF4B5
:1004D000FFD8C6C5D8E5BBA28FAAB1AC868896ACBA
:1004E000B1A1AFB2C9C8E1EAE7D2E1ECD8CAABA684
:1004F000A9A36E544C4134290F01070908000306D3
:10050000241900012F45361C274F6259402F4661A0
:1005100053483A4855695F5B59759297AC909CC1B6
:10052000E0DBD3B4D0ECDBC5A8B7B8C7AE9985AAD9
:10053000A9A3AA9BABAABDB2BBA4C2D9E1D5B8C737
:10054000D2DDB7B5A9BBA0918264645B52200708D5
:10055000260E04050C111616061B394C2C1D31797C
:100560007F4F4674805748516C5B474F80684C4FB3
:1005700078A0958487B5C5D5BAD5D2DEE7E5CABDE2
:10058000C1BEB89AAB9E9C939EA4B1A29CB2A1ADF1
:10059000B5D0CCD1CDD3CFD9DCBFBBB2B69D8F798E
:1005A000624444321514010400050709010E0F00CE
:1005B00009172E2E3A47525A5D58536A6D60566796
:1005C000716764757E7378848E9AA9ADB8BFBFE0F9
:1005D000EEE3E0E9DFD4DAD6DAD5C9BAC7D1BDB5E2
:1005E000B9B7A9AFB5B8B6C1C1BEBAC4C4B9ACAC8D
:1005F000C2AD8E77786F593B2A28100100020300A4
:100600000000000100000D353A1B183E5D4A4064B1
:100610007162555D71785F57818E76637694989A92
:100620008C91ABC5C2AFC1D2D3C9D3D3D5D9DDDC90
:10063000D3DBDBCBBECBC6C1B5BDBEB7CCCEBFB462
:10064000C8CBCDBEB1B2ACA1887A786E4C2E262A2A
:100650000E0700010007080000000E162D25140DDE
:1006600028705C272462705B50595D59757A7F72DF
:10067000708DABA59098B3BCB4BCC4C1BEC7D1CF7C
:10068000C6C9CDD5C6C1BFD5DBB5AFB7C9B2A4B059
:10069000C7C4B5B9B0BCC1BBAEA6A19C8D907C61EE
:1006A000615C4C372D16181619080100000F08065A
:1006B000001A1B1C302E2B3F574F3E4F6B666D6F41
:1006C0007C757E928A8295AEAA9498B4BCBFAFA77F
:1006D000B9C9BFB8B6C6C2BDBEBEC1C3CDBEC4B423
:1006E000BEBABBB9ACC2CECBAAB6C7CFBAB2AFB254
:1006F000BA997F70807252504E3123242B07000C20
:100700000D0A000A0520130B123B28173D4A4F2201
:100710004E566979614D69A8A58575ACAEABA0A5AB
:10072000AAB0BDBDBAABC4C5C6A9ACB1C7C3BBB046
:10073000B5CDD4D2B8ACB8D7CFB8A5C9DBCFBBAE96
:10074000C1CBC9AFAAA4A2918E8670635F59472E10
:10075000222E241D0207090B0A0408020D172F225E
:10076000202937403F3E3342777F525B88B08B6B06
:1007700088B1BAA79CADC2BAC8C2BAB6C1CFCAB610
:10078000B4C7C7BCA8AEBBBCB4C0BFB6B4B4BFB1DD
:100790009FABC3C5B6ABC5D6C4A09CB3C29C7A7A86
:1007A000817D64493E3C352D11090407040A03008C
:1007B00003122004030F40391F062754504F426490
:1007C00061838A91837FA7BABC8F96ADD3C3B1A949
:1007D000B8D3C3B9AEB7B5BBBAB49BB4CBCBB3A592
:1007E000C1C3C6B5B3ADC1C9CBBDB8BCBDD2BAB229
:1007F000A2B3B5A4907879806D4D403845290D019C
:100800000D150300000505000B281E0A0B383824BF
:1008100022345151504E5E6E8B868186A5BBA69DBB
:10082000A4BBC0C0AFAFB8C1C7B9A9A2BBC0AE9787
:10083000A3B6B7B9A2ABC8CBB8ABBCC6C3B6B4BE3F
:10084000BDBDB9BBBDB5B3B2B3B1A1958E928C6D30
:100850005659594932363721191019180E081521E1
:10086000191D2C3418323B4D542727598455405EAE
:1008700096A2968092ADBEAC9BA7ACC9BDBFA8B0F6
:10088000BEC0C0A2A0AACBC9BE9DAECCCAB6A6AF00
:10089000B1C1BCB299A3B0C3B8A9A4A6C5BCB59652
:1008A000A6B4A4937B74797668563D4741322119EA
:1008B00016170F0C13050C0604121B2A30161B36D4
:1008C000534D3B476B796A7D8AA08E9EB9B2AFA526
:1008D000ADBACCB3ABB2BEB9C0AEAAABB0BAA9AADE
:1008E000AABABDADA8BCC2BC9FA8B9B7B8AAAEB5DC
:1008F000C1B5BAAFB0AEB1ABAAA37D8E8F8D625435
:1009000065674C333C3B321F2227291122292B28B3
:100910002229394A3F4E394D5A67524366868E68BE
:10092000515BB4A77F69A1DCC1A98DADCBD9B1B0B2
:10093000ACB9CFC3B09CA6A6C6B19E93A8C5BC9FB8
:1009400098B2B3AC989EA6A6A4B7B4B1AAB1BAB5F2
:10095000B4A3A6A8A492877F776D60554C3935362D
:100960001E19191607000C1E0E06011831241B193A
:100970002937413C303163835F4C6595AB8471937B
:10098000BCBD999BBAD8CAB7BCC7CBBCB4BAC0B2BD
:10099000ABA7B5B1AAA5B0C1AEA8A7B4B2ABA6B07B
:1009A000ACA6ADB4BBABA3A6B5ADA3A29B90978BF1
:1009B00083736471625C4E4040493E2920252C2996
:1009C0001816251F231D323E3B33303E4A4A3C3920
:1009D0003956555752566C7788847F7AA2B6B6A896
:1009E000A0B1C1CFC1BDBACAC6C7BCADAEADC1BC56
:1009F000B9A39FACBDB49B8F93AA9F9487979EA1E8
:100A0000A39FA6AEBDB6BEB9B2AAA89E96967F6EAB
:100A1000635E4A352D34231D0B0311120B0208109F
:100A200020191D333D474B494F4C57645B5758764F
:100A3000837A6D72889993878F9BB1A39DA8B4BC6C
:100A4000B8B8B7C0C0BDC6CBC1C1B9BFCABCAEADD6
:100A5000BAC0BDAAA1A2A5A79D999E9A98A5A7A232
:100A60009F9DA4A7A6A8A99E95978E897D655E6087
:100A70005C4432231F1911100A0A06060908121EC7
:100A800017191F46554D443D55676152646D736B90
:100A90006B94A69A879DB8BCB2A9ACC4D4C9C7CC84
:100AA000D5D5CDC9D7D5C7BAB6BEB8B4B4B7AFB629
:100AB000B2B3B3A6ABA7AEA7A09A9DA3A7AA9B92D9
:100AC000949C9C988D847D7E79717063534D503ECB
:100AD00035312E28180E11170D110E151C1916215F
:100AE0003B3530303C5959494C595F554F607682FF
:100AF000767E8894A1A9B9B8B5B6BDD0DCD4C9C8F2
:100B0000CED2D3C8C6C2BABAB4B8B4B2B1AFAEAB23
:100B1000AAACB6B3AEA9A6ABA39C9E9DA3A19FA869
:100B2000A8A4A09E9CA5A38D7D7D78686462513D9C
:100B3000332D2724190907070000020406000615B3
:100B40001A181C34453E3544545C62625F615C5740
:100B5000637284897C758FADAFB3BEC5C8C9CDD76C
:100B6000DDD9CFCDCED4D0C9CACAC8B6B2B9C1C6F4
:100B7000BBADAAB7B5ADACAEA8A0A09C9D9C9EA0F5
:100B80009EA29A98A2A19E979394887C706B685EAF
:100B900050494B39292528291E130E0C0A0B0B121C
:100BA0000E08111621303C484E5367736F6D6C76FA
:100BB0007F75696A6C6D6F71818F90909DB3BBBBBF
:100BC000CCD5D4D8D9E2E6D9CDD0CFCAC3C0BAB536
:100BD000B1A9ACACA7A2A0A4A6A19BA2A6A49B96D7
:100BE0009A999A9B9E9EA6AA9E9C9E9D928E928466
:100BF00079665354514A423D32241F1F26261B1545
:100C000018171015252723202B38343748546160D6
:100C10005155595C5B5F62514E4B658990979EA11F
:100C20009FA9BED2E3E9D8D4D4D2D2D0DDCEBDAF15
:100C3000A2AAAAB2B8B4AEA5A3A7A8B4B7BBBBAFCB
:100C4000A8A9B2ADA8A4A0A39A969FA19F948B8FA8
:100C50008D8B828483746D625C5453514E4A3D3552
:100C600031322A23211D10060A0D181E22231F24AB
:100C7000252E3F4A565E5D56565D64706E656870FF
:100C80007A848C9EAFABAAB5C2C3C4D6E3E1D5CB00
:100C9000CED0C7C1C6C8B5A6A7AEB5ADB0BAB8B3B9
:100CA000B0B8C1BBBBB5B1AF9D999A9A938B8E87F3
:100CB000807C7D878B8787867E7A706C69625E56C2
:100CC000554F423E3E39302C291C120D1013121B79
:100CD0002A3027293038404B56575C545453535BC5
:100CE0005B645C50515E7A8992A3B1B0ADBAC9CD54
:100CF000D9EBECE5DCD3D0D0CBC6C1B8ACA4A3A86B
:100D0000B0B1B9C1B7B4B4B6B7B9B8B4B8AC9F9BB9
:100D10009FA39B999693918D8B898B8889898480D9
:100D2000746B685F5C58574E3D362F271E1B1F1D86
:100D3000150C04020308181E282A2229344D595F75
:100D40006C6562615F6C707678655B4B576C6D8A21
:100D5000A1AAA9A3B1BCD3E6F1FDF9EAE0DCD4D0A5
:100D6000CEC9C1B1A29B9E9C9BACAFB2B5AFADAC9E
:100D7000AEB1B9BAB1ACA8969296979D9996908962
:100D8000817E817F7C7C786E6B5F5957544F4C4ECF
:100D90003C322E26221B1E1E1911060B0C080F2199
:100DA0003230323C45484C5A636C69636C74787CD1
:100DB0007C796F676160798694ACB5B9B7BDBEC305
:100DC000D6DFE7EEE9E1D7C6C0C2C2BAB8B7AB9F7B
:100DD0009DA0A9B3B2BABDB7AFADB1AFAEADABA632
:100DE0009C908E8B878889898078767775737271ED
:100DF0006A615B514D4741433F3A322C2A222022FF
:100E000025231B1C1E1B191C232C2A2E3F4E514E22
:100E1000626C656769767D82898D8B77696D655DAA
:100E20006D82979AA0A9ABB4B9CFE3E4E8EEE9E00C
:100E3000D8D9DBD4CBC2C1BEAAA3A9A8A6A8B3B8EF
:100E4000AAA5AAAEB0AEAFB1A79F8E83807B8486E1
:100E5000858782827C6D6D7374706D72675853459F
:100E60003F3E3E3C3B3931252226262C303030296E
:100E70002927262F34363D3E45474B56545A605E4F
:100E80006C737577737A787B87878C83767E88908E
:100E90009FB2C6D2D0CFD4DADDDFEAECDFD9CFC53E
:100EA000C2B6B7B9B0A9A8A8A29D9EA2A0A5A7B195
:100EB000B3A6A7A09B939590898274726C686A729E
:100EC000747475706D6866686D695F5E5C4C403CFB
:100ED0003C3C393A3B3730241C201E202C30372F25
:100EE0002C322E373C465C5C54585655535E727417
:100EF00072757A797C818C96949A989486747B80AA
:100F00008B9CA5B4B9B7B9BEC6CDDDEDF3F5EDE068
:100F1000D7CEC7C2C2C0B3AAA69A94979A9FA0A5DB
:100F2000ABA59D9C9994909395938E8C8983807E9C
:100F30007C7C7B74716F66666A6C665F5D534A4346
:100F4000413F3A383837322C27292C292B2F313280
:100F5000303538393F3D414D545A60605F606972A9
:100F600079838C96949095908C8F908D8A877D79DB
:100F70007C7F8794A3B1B8C3CCCED3DADFE4E3DEC1
:100F8000D7CEC7BEBBB7B0B0ADAAA398989593997A
:100F90009996999998918E908D8C89868379767897
:100FA0007A79797F7F7B7B7E79747776736F6C64D7
:100FB0006159484749433C3C393738383D39333625
:100FC000363436383B3D3D3A3F473F424C4E4E4F1C
:100FD000595C5F6C747C828389918F8E919699960F
:100FE0009594928180909598A2B5BDBFC3C9D2D087
:100FF000D9E5E8EAE3DDDBCDC1C3C5BEB3AEA39B53
:101000008F888D8C898C95959294938F8A87858310
:101010007E7875747270717274716D706F6F6F73AA
:1010200075706F6A645F59595753504E4B47433D33
:1010300040413C3D3A36383F40423F3C44494E52A5
:101040005759575F5F5B5D5A595C636D6D72746E83
:101050007173838A878786847A808B8E9BA7B1B7CA
:10106000B7BAC2C7D0D7DCE4E2DAD9D7CFCDCECB7E
:10107000C8C1BAB4B0ADA7A4A3989291908E868A45
:101080008D8889868481777777726F6B696A6462ED
:101090006A696868656867666B6E625C5D55555025
:1010A0004B49453D383F3D3B3D3E403F3C3E43453F
:1010B00046424343424D524C4E5053584F4C51566A
:1010C0005D595C6364696F74747375747374717360
:1010D0007C82919BA5AEAEB4C0C7CCD3D9DEE0DF95
:1010E000DCDDDCD4D5D2CEC4B8B7B5AEA5A2A49C05
:1010F0009A9A989793939192928E8F8E8E868583EB
:10110000726A66606463626461605C63696E726E79
:101110006D6D6D6E706B6E6A686D5B5D5A53535684
:101120005750594B4046424B524E4A4546514F4FFD
:10113000555456585D5C5B666C6A6C707677777553
:101140007B807A84847D82867F81868089959DA339
:10115000A8B6BCB9BEC7CAD0D5DDE0E0DBDBDDD2C6
:10116000CFCDCDC7BEB5B1B0A9A29E9D9493918CB1
:101170008D87878B8A898980807B787976756F6B7C
:1011800064635E5E5E5F6060696361616462626544
:1011900061666260605D5B605A5C6556605E515E70
:1011A000554D5E554D584A59554B5C57575F5A61DE
:1011B0006A665F656F767D7E7A76818680888B8AA7
:1011C0008B8B888F8D8A949198988E8F9199A1A2FC
:1011D000A6ADADABA9ADABB1BAB5B9B6AEB5B3AC12
:1011E000B4B1ACAEA7A6A09C9F9C9C9A938C8A8914
:1011F00086817D807D767777716B6A676B686061C9
:101200005C5E635D5A585E5A525C59515758555747
:1012100053555A585A565A5E5C5F5C5D615D5F6219
:101220005C5E61616764626364666766686F6D7067
:101230006D6973756D7278787E75787C7A85817F3B
:10124000898781858585898A8E8C8A8D8C8A8F9005
:101250008F91949393949397949094939392959A57
:1012600096989A9292928F9496959799949391903A
:101270008D8D8F90918C8D878387847F7F7F7B7D01
:101280007C7A7070756F6B6D706E6F716F6A707154
:101290006963676B6A6D676668696B65636A6D6CC5
:1012A0006F6A6A6E6C696A6F717473767372757146
:1012B00071717C7C7C81787D7E7E777582817F7F79
:1012C000818283837D7F828787868A81868C8483DF
:1012D000898C8A8F8F8D8E8F8E898F928E8F918C35
:1012E0008B8C8A8A8A8B8D8B8B898889858886816D
:1012F00088868386858381817F7E80817F80827DD1
:101300007E7F807F7A7D7E7E807B787A7A7C7B7917
:101310007B797A7F7D7C7D7C797A77777A797B7A25
:1013200079797A7C7C7B77777D817E777A7F8382FF
:101330007B797F837F7A797C80817D7B7D80807BD8
:10134000797C7F807D7C8183807F7E8184827D80AB
:101350008280817E808485807E80818381807F837E
:101360008482817F7F80807F7F7F7F7F80807E7E81
:1013700080807F7F7F8081807E808181817E7D7D76
:101380007D7C7E7D7C7B7B7B7D7E7D7C797D7E7D97
:101390007C7B7F807D7A7C7C7D7E7C7C7D7F7D7C80
:1013A0007C7D7F7C7C7C7A7E7F7F7D7B7D7B7F7C70
:1013B0007C7B7D7D7C7C7D7D787D7A797B7E7A7877
:1013C0007F7A7A7A797D7E797B7B7C787E807B7967
:1013D0007B8077807F7F7B777D7C80777B7E7B7C4B
:1013E0007C7B7C7B7D7B777B7D7A7A7C787D757955
:1013F0007D7D81787A77817D797974797F7C777B3F
:101400007578797A7C7C7A797E777A807C77778038
:10141000827C787B818283837D7A857F81827884D8
:101420007F847F7E847D867E7B7F7C82817B7F7ACA
:10143000817C81867C7E827C81837B867B85878F95
:10144000796BA7A0856C7288888A84767386947D70
:1014500072596EBB88696D7976799063788E96AD96
:101460009B7D775C7392716563816A6C7A77786033
:101470006A646F7C7468696B6F68727F6F6B687C7D
:101480007C767C78726A6979726374707171797E26
:101490006A6C89806E8F929994989A8B989B9E9192
:1014A0006B798D90907F786868808C76787672867C
:1014B000798F836473858C8085887A6D7C847C7E4B
:1014C0007973737F7C7178777976747A7F83767E8F
:1014D0007F77827F737B8E7575777C8A7C82777E3F
:1014E00074789488757791868A877D8B898A8B8CAE
:1014F000848F988F81818D93948A838892908F8333
:101500008087848580887C75837F757E85807F79E0
:101510007380857573777570777E7F726D72626C7C
:10152000807B686062666E7172685E646C6B7874F2
:10153000606B756F6D6F6B7067595F686E6C707BF9
:101540007D7781959B9DA6A6A7ADB5C7CDC1BEC829
:10155000C7CBD0C1BBBDB9B5B0AAAEA79AA7A99F4A
:10156000A7A194A0A19D9FA09D928D8A8B938E7A16
:10157000746F6E60585B483D37000000000000004B
:10158000000000000000000000000000000000005B
:10159000000000000000000000000000000000004B
:1015A000000000000000000000000000000000003B
:1015B000000000000000000000000000000000002B
:101F50000000000000000000000000000000411F21
:101F6000E700411FE500411FE600441FD7016E3620
:101F700000441FD200005DC0411FD618441FDC2E54
:101F8000E00000431FE0000000411FE80000BB012B
:101F90000689828A83E0225002E722BBFE02E32206
:101FA00089828A83E49322BB010689828A83F02294
:101FB0005002F722BBFE01F322BC000BBE0029EF4A
:101FC0008DF084FFADF022E4CCF875F008EF2FFF20
:101FD000EE33FEEC33FCEE9DEC984005FCEE9DFEEE
:101FE0000FD5F0E9E4CEFD22EDF8F5F0EE8420D235
:101FF0001CFEADF075F008EF2FFFED33FD400798A4
:102000005006D5F0F222C398FD0FD5F0EA22C5F0B4
:10201000F8A3E028F0C5F0F8E58215827002158378
:10202000E038F022BB010A89828A83F0E5F0A3F050
:10203000225006F709A7F01922BBFE06F3E5F009C6
:10204000F31922EF2BFFEE3AFEED39FDEC38FC22BE
:10205000E88FF0A4CC8BF0A42CFCE98EF0A42CFC2F
:102060008AF0EDA42CFCEA8EF0A4CDA8F08BF0A4AD
:102070002DCC3825F0FDE98FF0A42CCD35F0FCEB0C
:102080008EF0A4FEA9F0EB8FF0A4CFC5F02ECD39D1
:10209000FEE43CFCEAA42DCE35F0FDE43CFC2275C8
:1020A000F008758200EF2FFFEE33FECD33CDCC3339
:1020B000CCC58233C5829BED9AEC99E58298400CA1
:1020C000F582EE9BFEED9AFDEC99FC0FD5F0D6E47F
:1020D000CEFBE4CDFAE4CCF9A88222B800C1B90065
:1020E00059BA002DEC8BF084CFCECDFCE5F0CBF9C6
:1020F0007818EF2FFFEE33FEED33FDEC33FCEB33BE
:10210000FB10D703994004EB99FB0FD8E5E4F9FAEB
:10211000227818EF2FFFEE33FEED33FDEC33FCC9D0
:1021200033C910D7059BE99A4007EC9BFCE99AF963
:102130000FD8E0E4C9FAE4CCFB2275F010EF2FFFD2
:10214000EE33FEED33FDCC33CCC833C810D7079B3C
:10215000EC9AE899400AED9BFDEC9AFCE899F80F9F
:10216000D5F0DAE4CDFBE4CCFAE4C8F922EF4BFF7A
:10217000EE4AFEED49FDEC48FC22EB9FF5F0EA9EAD
:1021800042F0E99D42F0E89C45F022E8600FECC384
:1021900013FCED13FDEE13FEEF13FFD8F122E86000
:1021A0000FEFC333FFEE33FEED33FDEC33FCD8F11C
:1021B00022BB010789828A830221EB5005E9F802DC
:1021C0002386BBFE05E9F802239289828A830223D3
:1021D0009EBB010789828A830222035005E9F80227
:1021E00023AEBBFE05E9F80223BA22E0FCA3E0FD22
:1021F000A3E0FEA3E0FF22E0F8A3E0F9A3E0FAA346
:10220000E0FB22ECF0A3EDF0A3EEF0A3EFF022E070
:10221000FBA3E0FAA3E0F922EBF0A3EAF0A3E9F0D4
:1022200022E493FB740193FA740293F922D083D0D1
:1022300082F8E4937012740193700DA3A393F87461
:102240000193F5828883E4737402936860EFA3A31B
:10225000A380DFE50C2582F582E50B3583F583B598
:102260000B0485820C2210AF0685820CF50B2285AB
:10227000820CF50BD2AF22EC8EF0A4CCC5F0CCCD05
:10228000F8EFA4CEC5F02DFDE43CFCE8A42EC8C5B3
:10229000F03DFDE43CFCEFA4FFE5F028FEE43DFD4D
:1022A000E43CFC22E709F608DFFA8046E709F20879
:1022B000DFFA803E88828C83E709F0A3DFFA803260
:1022C000E309F608DFFA806EE309F208DFFA8066B8
:1022D00088828C83E309F0A3DFFA805A89828A839B
:1022E000E0A3F608DFFA804E89828A83E0A3F20831
:1022F000DFFA804280D280FA80C680D4805580F296
:102300008029801080A680EA809A80A880DA80E206
:1023100080CA802988848C8589828A83E493A30576
:1023200086F0A30586DFF5DEF3800B89828A83E4DD
:1023300093A3F608DFF9ECFAA9F0EDFB2288848C70
:102340008589828A83E0A30586F0A30586DFF6DE11
:10235000F480E389828A83E493A3F208DFF980D6CC
:1023600088F0EF60010E4E60CD88F0ED2402B404D9
:102370000050C3F582EB2402B4040050B923234576
:1023800082239022F473E6FC08E6FD08E6FE08E6E8
:10239000FF22E2FC08E2FD08E2FE08E2FF22E493ED
:1023A000FC740193FD740293FE740393FF22ECF618
:1023B00008EDF608EEF608EFF622ECF208EDF2086A
:1023C000EEF208EFF2227F007E007D007C00901F7D
:1023D00069122203901F6DE4F01231C37F01122FA6
:1023E000707B017A007901901F41122218901F41E1
:1023F00012220FC003C002C0017B017A1F794D90E9
:102400001F71122218D001D002D003122B1E7B01A3
:102410007A00790D901F44122218901F4412220F47
:10242000C003C002C0017B017A1F7955901F711251
:1024300022187B017A1F7961901F741222187B0188
:102440007A1F7963901F771222187B017A1F7951C6
:10245000901F7A1222187B017A1F7959901F7D12E2
:1024600022187B017A1F7967901F801222187B0146
:102470007A1F7965901F83122218D001D002D003F1
:1024800012282A901F4412220FE92408F9EA340086
:10249000FA901F551221EBE92FF9EA3EFAEB3DFBCA
:1024A000901F47122218901F4712220FC003C0022C
:1024B000C0017B017A1F795D901F71122218D00133
:1024C000D002D003122D28901F4712220FE92408B2
:1024D000F9EA3400FA901F4A122218123137D2AFAB
:1024E0009044F474FDF01231D87E307FF2122FDA6E
:1024F0007F407E1F7D007C00901F691221F7C31270
:10250000217A5064123181EF7014901F6DE0FFEF5B
:102510006401FF901F6DEFF0123181EF60FA9000BF
:1025200000E0FFEF60CA901F6DE0FFEF60C2900017
:1025300000E4F0901F691221EB901F4A12220FE96C
:102540002FF9EA3EFAEB3DFB121F8EFF1231FD9090
:102550001F691221EB7B017A007900780012204379
:10256000901F6912220380887F01122F707BFF7AEF
:102570002F7930122DDD80FE227B007A4679E81219
:102580003228EF4405FD7B007A4679E81232347533
:102590000A00E50AC39408503AAF0AEF75F005A4A3
:1025A0002447F582E43432F583AF82AE838E088F00
:1025B00009AE08AF098F828E83122221AE08AF09BF
:1025C0008F828E83740393FC740493FD1231510542
:1025D0000A80BF7B087A0079001230997B017A501B
:1025E0007903123228EF4402FD7B017A50790312FD
:1025F00032347B017A507913123228EF4402FD7B8A
:10260000017A5079131232349043A0E0FFEF444036
:10261000FF9043A0EFF09043C2E0FFEF4410FF9023
:1026200043C2EFF07B087A00792CC003C002C001DE
:102630007B007A517902901F46122218D001D002F5
:10264000D0037F087E00122FA67B087A007934C061
:1026500003C002C0017B007A517910901F461222FC
:1026600018D001D002D0037F0A7E00122FA67B086B
:102670007A007940C003C002C0017B007A51792200
:10268000901F46122218D001D002D0037F087E008E
:10269000122FA69044F47401F0904322E0FFEF441F
:1026A00008FF904322EFF09046ECE0FFEFC3940563
:1026B0005006904689743AF090480074F1F012295F
:1026C0003090480074B1F0122EBB7B007A4379A0A1
:1026D000C003C002C0017B007A4379B0901F46124C
:1026E0002218D001D002D0037F0E7E00122FA690B8
:1026F00043B0E0FFEF54FDFFEFF022905120E0FFE8
:10270000EF5480FFEFF0905122E0FFEF54F0FF9084
:102710001F8EEFF0901F8EE0FFEF440FFF905122CD
:10272000EFF0905123E0FFEF54F0FF901F8EEFF099
:10273000901F8EE0FF905123EFF0905124E0FFEFC7
:1027400054F0FF901F8EEFF0901F8EE0FF90512409
:10275000EFF0905120E0FFEF54DFFFEFF0905120B9
:10276000E0FFEF4440FFEFF07F007E0012306C90FE
:102770005120E0FFEF4410FFEFF07F017E001230A8
:102780006C905121E0FF901F8EEFF0905120E0FF00
:10279000EF54EFFFEFF07F007E0012306C901F8E41
:1027A000E0FFEF5408FF901F8EEFF0905120E0FF04
:1027B000EF4410FFEFF07F017E0012306C9051204B
:1027C000E0FFEF54EFFFEFF0901F8EE0FFEF709807
:1027D000905120E0FFEF54BFFFEFF0905120E0FF59
:1027E000EF5480FFEFF0905122E0FFEF54F0FFEF45
:1027F000F0905123E0FFEF54F0FF901F8EEFF09028
:102800001F8EE0FFEF440FFF905123EFF090512413
:10281000E0FFEF54F0FF901F8EEFF0901F8EE0FF6F
:10282000EF440FFF905124EFF022901F6E122218F8
:10283000901F6E12220FC003C002C0017BFF7A2FCF
:102840007917901F89122218901F8CE4F0A374044A
:10285000F0D001D002D003122BC1EF60107F011223
:102860002F707BFF7A2F791C122DDD80FE901F6E5A
:1028700012220FE92404F9EA3400FA12311B901FE6
:102880007112220F1221D1901F6E12220FE924081B
:10289000F9EA3400FA12311B901F7412220FEE8FE6
:1028A000F0122024901F6E12220FE9240AF9EA3454
:1028B00000FA12311B901F7712220FEE8FF01220B8
:1028C00024901F6E12220FE9240CF9EA3400FA1248
:1028D000311B901F7A12220F1221D1901F6E1222EB
:1028E0000FE92410F9EA3400FA12311B901F7D120F
:1028F000220F1221D1901F6E12220FE92414F9EA3F
:102900003400FA12311B901F8012220FEE8FF0124A
:102910002024901F6E12220FE92416F9EA3400FADF
:1029200012311B901F8312220FEE8FF012202422EF
:102930007B007A4079807D857C0812320D90408240
:102940007418F09043007402F09040007408F09006
:1029500042007403F07B0C7A017908123228904609
:10296000A1EFF07B007A4279227D087C0012320DC3
:102970007B007A4279207D517C1212320D901F45E6
:10298000E4F07F197E007D007C00901F411222033D
:10299000901F411221EBD3EF9400EE9400404E9033
:1029A0001F45E0FFEF64036044904225E0FFEF54D1
:1029B00001FF7E00901F45E0FEEE25E0FEEE4FFF9A
:1029C000EF5403FF901F45EFF07FE07E017D007C18
:1029D00000123000901F411221EB7BFF7AFF79FF3C
:1029E00078FF122043901F4112220380A3901F41C1
:1029F0001221EBEF4E70057F031231EB7B007A4022
:102A000079047D007C0112320D9040047407F0902F
:102A10004006E4F09040087448F0904004E4F090E0
:102A200040017402F09043A2E0FFEF4401FF9043A5
:102A3000A2EFF02275930078007583467582E8E076
:102A40004401F0009046ECE0F99046FAE0FAB90350
:102A5000225420B40012B8001AEA901FFFF074014B
:102A6000901FFEF09046F6F0901FFEE06005901F6C
:102A7000FFE0FA90480074C0F075810C9000007877
:102A8000007920E4F0A3D8FCD9FAEA901FDBF00229
:102A90000011750B1F750CFD122579022AD902232E
:102AA000C6E493A3F8E493A34003F68001F208DFA1
:102AB000F48029E493A3F85407240CC8C333C45406
:102AC0000F4420C8834004F456800146F6DFE480BA
:102AD0000B010204081020408090001AE47E01934C
:102AE00060BCA3FF543F30E509541FFEE493A3608C
:102AF000010ECF54C025E060A840B8E493A3FAE4E7
:102B000093A3F8E493A3C8C582C8CAC583CAF0A337
:102B1000C8C582C8CAC583CADFE9DEE780BE901F88
:102B20006E122218901F6E12220FC003C002C00145
:102B30007BFF7A2E79FD901F89122218901F8CE45A
:102B4000F0A37404F0D001D002D003122BC1EF60C7
:102B5000107F01122F707BFF7A2F7902122DDD80FA
:102B6000FE901F6E12220FE92404F9EA3400FA12D3
:102B7000311B901F7112220F1221D1901F6E122251
:102B80000FE92408F9EA3400FAC003C002C0017B4F
:102B9000FF7A2F790A901F89122218901F8CE4F077
:102BA000A37404F0D001D002D003122BC1EF601047
:102BB0007F01122F707BFF7A2F790F122DDD80FE9F
:102BC00022901F86EBF0A3EAF0A3E9F0901F89E0C2
:102BD000FBA3E0FAA3E0F9121F8EFE901F86E0FB34
:102BE000A3E0FAA3E0F9121F8EFF6E702AEF600EC9
:102BF000901F8C74FFF5F012200E45F070037F00DB
:102C000022901F87E475F00112200E901F8AE47550
:102C1000F00112200E80B5901F86E0FBA3E0FAA31E
:102C2000E0F9121F8EFDD3EE6480F8ED64809840C9
:102C3000037F0122901F89E0FBA3E0FAA3E0F912D1
:102C40001F8EFFC3ED9FFF227F287E007D007C004A
:102C5000122CC27F03122E2B7F057E007D007C008C
:102C6000122CC27F03122E2B7F0F7E007D007C0072
:102C7000122CC27F03122E2B7F017E007D007C0070
:102C8000122CC27F02122E2B7F057E007D007C005D
:102C9000122CC27F06122F707F0E122F707F2C1203
:102CA0002F707F08122F707F01122F707F0C122F50
:102CB000707F03122F707F057E007D007C00122C38
:102CC000C22290FFFC122253122203850B83850C33
:102CD000821221EBD3EF9400EE9480402F901FDC02
:102CE0001221EB123000850B83850C82C083C082D9
:102CF0001221EBEF2400FFEE3480FEED34FFFDECFB
:102D000034FFFCD082D08312220380BF901FD212E6
:102D100021EB850B83850C821221F7122050123093
:102D20000090000412225322901F6E122218901F4E
:102D30006E12220FC003C002C0017BFF7A2F7923DD
:102D4000901F89122218901F8CE4F0A37404F0D015
:102D500001D002D003122BC1EF60107F01122F703F
:102D60007BFF7A2F7928122DDD80FE901F6E1222B4
:102D70000FE92404F9EA3400FA12311B901F711292
:102D8000220F1221D122901F8DEFF01226FB9051BD
:102D900020E0FFEF4420FFEFF0905120E0FFEF54E0
:102DA000BFFFEFF0905120E0FFEF54F0FFEFF09005
:102DB0005120C083C082E0FF901F8DE0FEEE4410E2
:102DC000FEEF4EFFD082D083EFF07F017E00123005
:102DD0006C905120E0FFEF54EFFFEFF022901F8640
:102DE000122218901F897401F0901F8612220F1270
:102DF0001F8EFF901F8AEFF0901F8AE0FFEF602A7E
:102E0000901F8AE0FF122F3A901F8612220F901F08
:102E100089E0FFE92FF9E43AFA121F8EFF901F8A2A
:102E2000EFF0901F89E004F080CE22901F88EFF031
:102E3000905120E0FFEF549FFFEFF0905120E0FF12
:102E4000EF54F0FFEFF0905120C083C082E0FF907C
:102E50001F88E0FEEE4410FEEF4EFFD082D083EFDD
:102E6000F07F017E0012306C905120E0FFEF54EFB4
:102E7000FFEFF022905820E0FFEF540CFF7E00EFB0
:102E80007802CEC313CE13D8F9FFEF2406FF901FAC
:102E90006FEFF0901F6FE0FFE4FCFDFEEF2420FFDA
:102EA000EE3401FEED340CFDEC3400FCA907AA065B
:102EB000AB05123228904608EFF0227B0C7A01799C
:102EC000CF123228901F41EFF0901F41E0FFEF54E6
:102ED00007FF90586EEFF0901F41E0FFEFC4540FD2
:102EE000FFEF540FFF90586FEFF090510C7480F08B
:102EF000905A837401F09058767444F022524946F7
:102F000046004E6F20524946460057415645004EF6
:102F10006F205741564500666D7420004E6F206645
:102F20006D740064617461004E6F206461746100AF
:102F30005465726D696E61646F00901F8BEFF012C3
:102F400026FB901F8BE0FFEFC4540FFF901F8CEF08
:102F5000F0901F8CE0FF122D86901F8BE0FFEF5446
:102F60000FFF901F8CEFF0901F8CE0FF122D862238
:102F7000901F86EFF01226FB901F86E0FFEFC454EF
:102F80000FFF901F87EFF0901F87E0FF122E2B900E
:102F90001F86E0FFEF540FFF901F87EFF0901F8711
:102FA000E0FF122E2B22758600EF4E6027EF6001A6
:102FB0000E759300901F46E0F595A3E0F585A3E01C
:102FC000F5848B938A838982E0A30586F0A3158616
:102FD000DFF6DEF4E4F593F59522901F6EEEF0A394
:102FE000EFF07B027A447900901F6EE0FEA3E0FFD1
:102FF000AD07AC0612320F229044C07401F02232A9
:10300000EC4D4E700D78FCEF24E950032840FD2272
:1030100000007BF178DA0000EF28FF78FFEE38FE41
:10302000ED38FDEC38FC50E7EF2BFFEE38FEED38C5
:10303000FDEC38FC40F22205020304901F6EEFF015
:10304000905820E0FFEF54F3FFEFF0905820C0833A
:10305000C082E0FF901F6EE0FEEE540CFEEF4EFFCC
:0A306000D082D083EFF0122E74220C
:10306C00EEFA901FD6E0F88FF0A4FFAEF0E88AF0ED
:10307C00A42EFEE5F03400FDEF24C9FF78FFEE38F6
:10308C00FEED38FDE438FC500302300022ACEAAD12
:10309C00A08B938A838982E0F96017A3E0F5EAA3F9
:1030AC00E0F5A0A3E060F4FAA3E0F8A3E0F2DAF80C
:1030BC00D9E98DA08CEAE4F59322901F6EEFF09085
:1030CC005820E0FFEF54FDFFEFF0905820C083C074
:1030DC0082E0FF901F6EE0FEEE5402FEEF4EFFD03A
:1030EC0082D083EFF022C0E0C083C082C085C08450
:1030FC00C086758600C0937593009000007401F033
:10310C00D093D086D084D085D082D083D0E032903A
:10311C001F86122218901F8612220F901F891222CE
:10312C0018901F8912220F1221B122901FE7E0FF85
:10313C00EF70091231AE901FE77401F012316A7F03
:10314C00001231FD22EC4D6011ED60010C8B938A65
:10315C00838982E4F0A3DDFCDCFA759300229043B2
:10316C00A8E0FFEF4401FFEFF09043B8E0FFEF441D
:10317C0001FFEFF022905111E0FFEF5440FF7E0071
:10318C00EF7806CEC313CE13D8F9FF22901F6EEF43
:10319C00F0901F6EE0FFEFC43354E0FF904480EFDB
:1031AC00F022905820E4F0905821E4F07F04123083
:1031BC003B7F001230C622901FE6E0FFEF70091231
:1031CC002C48901FE67401F012321C221232407E01
:1031DC002F7FFF122FDA7F07123198122FF82290CF
:1031EC001F46EFF0901F46E0FF901F46EFF080FE69
:1031FC0022901F6EEFF0901F6EE0FF905B80EFF05F
:10320C00228B938A838982EDF0A3ECF075930022D4
:10321C007F0C122F70901FE57401F0228B938A8320
:10322C008982E0759300FF228B938A838982EDF06B
:10323C00759300229044C87401F022005130004074
:10324C000051C000100051F00010010000100001EE
:10325C00140008000140000A00014C00020001505B
:03326C000000203F
:00000001FF
